:020000040800F2
:10000000106F0124D57F0208297C02082B7C02088E
:100010002D7C02082F7C0208317C020800000000C1
:100020000000000000000000000000003D82020807
:10003000337C020800000000F5880108C187010830
:100040004182020845820208498202084D82020864
:100050005182020855820208598202085D82020814
:100060006182020865820208698202086D820208C4
:100070007182020875820208798202087D82020874
:100080008182020885820208898202088D82020824
:100090009182020895820208998202089D820208D4
:1000A000A1820208A5820208A9820208AD82020884
:1000B000B1820208B5820208B9820208BD82020834
:1000C000C1820208C5820208C9820208CD820208E4
:1000D000D1820208D5820208D9820208DD82020894
:1000E000E1820208E582020800000000E9820208BD
:1000F000ED820208F1820208F5820208F982020804
:10010000FD820208018302080583020809830208B0
:100110000D83020811830208357C0208158302084A
:10012000198302081D83020821830208258302081F
:10013000298302083F7C02082D83020831830208CC
:1001400000000000000000000000000000000000AF
:1001500035830208398302083D830208418302087F
:1001600045830208498302084D830208518302082F
:1001700055830208598302085D83020800000000CD
:100180006183020865830208698302086D8302089F
:100190007183020875830208798302087D8302084F
:1001A0008183020885830208898302088D830208FF
:1001B0009183020895830208998302089D830208AF
:1001C000A1830208A5830208A9830208AD8302085F
:1001D000B1830208B5830208B9830208BD8302080F
:1001E000C1830208C5830208C9830208CD830208BF
:1001F000D1830208D5830208D9830208DD8302086F
:10020000E1830208E5830208E9830208ED8302081E
:10021000F1830208F5830208F9830208FD830208CE
:100220000184020805840208098402080000000015
:100230000D840208118402080000000015840208E1
:10024000198402081D8402082184020825840208FA
:10025000298402082D8402083184020835840208AA
:10026000398402083D84020841840208458402085A
:10027000498402084D8402085184020800000000ED
:1002800055840208598402085D84020800000000B9
:1002900000000000618402082DE9FE4305000E0005
:1002A00017001C0001A85FF00008077010F1010999
:1002B000E009C001002804D054F0800009F80800CB
:1002C00003E014F07F0009F80800E40918F10108C0
:1002D000002CEDD10A9800902B6B18F1010201A9B6
:1002E000300002F01FF8BDE8FE832DE9FE43040054
:1002F0000D0016000027042100220DF104084046DD
:1003000002F0F0F85FF001085FF0000902A8009029
:10031000042301AA0121200002F017F9002802D0CD
:10032000DFF8C40B29E00298814508D3B9F1040F26
:1003300002D1DFF8B80B20E0DFF8AC0B1DE001A81C
:1003400010F8090010F07F0008FB00775FEAC8187A
:10035000484610F1010901A9085C0006E3D4606A6F
:1003600017EB0901491C884202D2DFF87C0B04E03C
:100370002F6019F1010030600020BDE8FE832DE9F7
:10038000F64F85B0804689469A46109D0024002786
:100390005FF0FF31D8F8340002F038F98346BBF142
:1003A000000F02D0DFF8480BF1E0D8F888010328ED
:1003B00006D0D8F8340002F071F9DFF8380BE6E027
:1003C00002A9404600F0E6F80600002E05D0D8F855
:1003D000340002F063F93000D9E05FF0020B1AEB51
:1003E0000B0B1BF1020BB9F1820F01D11BF1010BB9
:1003F0005FF0FF3000905B464A46D2B20299404619
:10040000FFF74AFF0400002C09D0D8F8340002F0AE
:1004100045F9029802F06EF9DFF8DC0AB7E0D8F887
:10042000BC02000A8DF80C00D8F8BC028DF80D0053
:10043000002D02D0D8F8BC0228805FF0FF30009079
:10044000D8F83030022203A9029801F06BFF0700B0
:10045000002F09D0D8F8340002F020F9029802F0F9
:1004600049F9DFF8940A92E05FF0FF3000905346BC
:10047000069A0299404600F0CAFE0400002C09D0FA
:10048000D8F8340002F00AF9029802F033F9DFF8E4
:10049000680A7CE0B9F1820F1BD1119810F00300BB
:1004A0008DF80C005FF0FF300090D8F8303001225A
:1004B00003A9029801F036FF0400002C09D0D8F8F7
:1004C000340002F0EBF8029802F014F9DFF8280A81
:1004D0005DE05FF0FF30019000200090D8F8BC3262
:1004E0009BB204AA0299404600F0A0F8002809D067
:1004F000D8F8340002F0D2F8029802F0FBF8DFF8E6
:10050000F80944E0D8F8C402002803D10498C8F8D8
:10051000C40203E00498D8F8C812C8610498C8F867
:10052000C802D8F8BC02401C80B2C8F8BC02D8F897
:10053000BC02002802D10120C8F8BC0202F05CF91C
:10054000D8F880110818C8F87801D8F8340002F0FB
:10055000A5F8D8F8F802002808D05FF0FF32029919
:1005600018F5AC6002F054F9070007E05FF0FF32C5
:10057000029918F5C67002F085F90700002F05D022
:10058000029802F0B7F8DFF8980B0400200007B0DB
:10059000BDE8F08F70B504000D000026D4F8F80215
:1005A000002809D05FF0FF332A00216B14F5AC60FE
:1005B00002F072F9010014E0D4F8A001042808D177
:1005C0005FF0FF3338222900206B02F0ABF9010005
:1005D00007E05FF0FF334C222900206B02F0A2F904
:1005E0000100002902D0DFF8100900E0002070BDF2
:1005F00038B50400D4F8245115F5C670A04205D1D1
:100600000022402115F5A47002F024FA31BD38B55E
:100610000400D4F8245115F5C670A04205D100227B
:10062000022115F5A47002F015FA31BD2DE9F84349
:1006300005000E0017009846089CDDF824904B46F4
:100640002A6B3900300002F029FA0100002902D09B
:10065000DFF8A40810E038680069A0F800802000E6
:10066000C0B2002807D038688068007850F00800D1
:100670003A68926810700020BDE8F28370B50500FA
:100680000E001400002C02D0F069E06102E0F06975
:10069000C5F8C402D5F8C802864201D1C5F8C842DF
:1006A000300002F027F870BD002A02D0CB69D36178
:1006B00002E0CB69C0F8CC32D0F8D032994201D1F7
:1006C000C0F8D022D0F8D4325B1EC0F8D4327047C4
:1006D0002DE9F84305000E001700DFF8449AD6F81C
:1006E0000880706A042806D198F80000C0B200099A
:1006F000C0B2022802D0DFF82C4A38E098F8010096
:10070000022802D0DFF81C4A31E0D5F88401002825
:1007100006D098F80200C00702D5DFF8084A26E0A4
:1007200098F80300062802DBDFF8F8491FE098F884
:100730000300002805D098F8034004F58034803485
:1007400015E000245FF0FF31686B01F05FFF0320CC
:10075000C5F888010120C5F8BC02D5F8BC02002804
:1007600002D10120C5F8BC02686B01F097FFD5F8F3
:10077000DC02002806D0D5F8E02221002800D5F8B8
:10078000DC329847002C15D1D5F88401012815D00A
:10079000D5F8C402002811D05FF0FF31686B01F07A
:1007A00035FF3900280000F0F8FE0400686B01F006
:1007B00075FF03E00021280000F055FD2000BDE892
:1007C000F2832DE9F04385B004000D0016001F00F0
:1007D000DDF8308000200190A0680078C0F3410966
:1007E00002AA01A92000FFF780FD002802D0DFF84F
:1007F00038094AE00198022802D2DFF82C0944E0C7
:1008000004A80090022303AA0299200001F09DFE93
:10081000002802D10498022802D0DFF80C0934E045
:100820009DF80C009DF80D1051EA00210198801EE2
:10083000884202D2DFF8F00827E00298801C286086
:1008400031800198401A801E01904846C0B20128AC
:1008500003D04846C0B202280DD102980818001DE6
:1008600002900198022802D2DFF8BC080DE001983E
:10087000801E019003E002980818801C02900298E4
:1008800038600198C8F80000002005B0BDE8F0838A
:100890002DE9F34F89B007005FF000080025002024
:1008A00004905FF0000A0A9880680078C0F341095C
:1008B00006AA04A90A98FFF718FD002801D0002015
:1008C0001AE10498022802D2DFF85C0814E107A8B4
:1008D0000090022302AA06990A9801F036FE002829
:1008E00002D10798022802D0DFF83C0804E19DF805
:1008F00008009DF8091051EA002108910498801E13
:100900000899884202D2DFF82008F5E04846C0B2D4
:10091000002801D101243CE007A80090022302AA8C
:10092000069908984118891C0A9801F00EFE0028C3
:1009300002D0DFF8F407DFE09DF808009DF8091009
:1009400051EA00218846D7F8C40203900398002892
:1009500019D00398806800788DF80A000398006920
:100960000088ADF81400BDF81400414689B28842F1
:1009700005D19DF80A0010F0F000502803D003982C
:10098000C0690390E2E70398002801D0002400E04A
:100990000124002C30D00699049841180A98406A26
:1009A000814209D200233A6B0AA90A9802F076F82C
:1009B000002803D000209FE001208246D7F8D4020F
:1009C000401CC7F8D402D7F8CC02002803D10A98FB
:1009D000C7F8CC0203E00A98D7F8D012C8610A9889
:1009E000C7F8D002D7F8D802002805D0D7F8D4121B
:1009F0003800D7F8D82290474846C0B2002801D125
:100A0000504679E00AA93800FFF7C4FD0500002D23
:100A100001D0504670E00A98D0F808B002208BF858
:100A20000100404680B2000A8BF802008BF8038078
:100A30004846C0B2012803D140208BF8000002E0F4
:100A400050208BF800000A988068001D0A99C86041
:100A500004200A9948624846C0B2022821D15FF0BA
:100A6000FF3001900020009043469BB203AA0A99F0
:100A70003800FFF7DBFD002804D00A9801F03AFEA9
:100A8000504639E0D7F8C402002803D10398C7F8CC
:100A9000C40203E00398D7F8C812C8610398C7F8E6
:100AA000C802786B01F0FAFDD7F8F802002808D0E8
:100AB0005FF0FF320A9917F5AC6001F0A9FE06005D
:100AC00007E05FF0FF320A9917F5C67001F0DAFE11
:100AD00006005FF0FF31786B01F098FD002E03D027
:100AE0000A9801F007FE06E001F086FED7F88011B3
:100AF0000818C7F8780150460BB0BDE8F08F2DE913
:100B0000F84F84B083460F00BD686878022801D092
:100B10000120BBE0A87895F8039059EA00295FF01E
:100B2000000ADBF8C442002C00F0AF80A068007817
:100B3000804620690088ADF80800BDF808004946E5
:100B400089B2884240F09E802878C0B2000904280B
:100B50001CD14046C0B210F0F600322840F092801E
:100B6000DBF8F00200280AD0DBF8F4020090230042
:100B70004A4692B204215846DBF8F062B04752462A
:100B800021005846FFF77AFD01207FE02878C0B2A7
:100B90000009062876D14046C0B210F0F600502871
:100BA00070D101A95846FFF7F5FC0600002E01D0D0
:100BB00001206BE0019841690198C068091A042975
:100BC00004D2019801F096FD09205FE00198806849
:100BD0000390702003990870022003994870B86848
:100BE000C07801998968C870B868007901998968E6
:100BF000087101988068001D0199C860042001995E
:100C00004862DBF8340001F049FDDBF8F802002807
:100C100008D05FF0FF3201991BF5AC6001F0F8FDE0
:100C2000050007E05FF0FF3201991BF5C67001F087
:100C300029FE05005FF0FF31DBF8340001F0E6FC2F
:100C400001F0DAFDDBF880110818CBF87801002DEF
:100C500002D0019801F04EFDDBF8F00200280AD026
:100C6000DBF8F402009023004A4692B2062158466F
:100C7000DBF8F062B047524621005846FFF7FEFC11
:100C8000012003E0A246E4694DE7012005B0BDE87C
:100C9000F08F2DE9F04F85B005000E00B06890F898
:100CA000009004AA02A93000FFF71FFB002802D021
:100CB000DFF8740475E003A80090022301AA0499E8
:100CC000300001F042FC002802D10398022802D033
:100CD000DFF8540465E09DF804009DF805A05AEA89
:100CE000002A5FF0000BD5F8C442002C58D0A06851
:100CF000007807002069008880464046514680B24F
:100D000089B2884249D14846C0B2000909281FD19A
:100D10003800C0B2000908281AD10298032801D06F
:100D200001203EE0D5F8F00200280AD0D5F8F40200
:100D300000902300524692B209212800D5F8F0C253
:100D4000E0475A4621002800FFF798FC012028E0E0
:100D50004846C0B200090B281FD13800C0B20009B4
:100D60000A281AD10298022801D0012019E0D5F8EA
:100D7000F00200280AD0D5F8F40200902300524671
:100D800092B20B212800D5F8F0C2E0475A46210064
:100D90002800FFF773FC012003E0A346E469A4E701
:100DA000012005B0BDE8F08FD0F87011012905D100
:100DB0000021C0F870110021C0F8741170472DE9AE
:100DC000F04781465FF0000A0025D9F88801032822
:100DD00002D10120050004E0D9F88801022840F082
:100DE0008180D9F8340001F059FC5FF0FF314846AA
:100DF00000F039FA5FF0FF31D9F8340001F006FC59
:100E00000600D9F8C442002C19D0E0690700A06898
:100E1000007880464046C0B210F0F000802805D02F
:100E20004046C0B210F0F000A02805D15246210083
:100E30004846FFF723FC00E0A2463C00E3E7012D13
:100E400007D1D9F8E402002803D04846D9F8E412C3
:100E50008847002D0BD1D9F8DC02002807D0D9F83B
:100E6000E022DFF8F01A4846D9F8DC329847002E25
:100E700014D1D9F8CC02002806D00022D9F8CC121F
:100E80004846FFF711FCF4E70020C9F8D40202221B
:100E90007FF0020119F5A47001F0DCFDD9F88001A2
:100EA000002805D00020C9F870010020C9F874019D
:100EB0000020C9F80C000020C9F814000020C9F86F
:100EC0001C000020C9F82400002089F81A00D9F875
:100ED000C002002806D0D9F8C00201F00BFC0020A7
:100EE000C9F8C002BDE8F08710000100040001004D
:100EF0000300010002000100060001002DE9F0419D
:100F000086B00600706B01F0C9FBD6F8F802002825
:100F100007D0002201A916F5AC6001F039FE0400EB
:100F200006E0002201A916F5C67001F069FE040072
:100F3000002C08D0012C05D00022202116F5A47029
:100F400001F088FDE9E05FF0FF31706B01F05EFBBE
:100F5000D6F8C00200282BD0D6F8C002806900283D
:100F600005D00198D6F8C0128969486003E001985D
:100F7000D6F8C012486001988069002805D0019811
:100F80008069D6F8C012886103E00198D6F8C012D3
:100F90008861D6F8C002416A0198406A4118D6F8C3
:100FA000C0024162D6F8C00201900020C6F8C0021B
:100FB000D6F8E802002808D0D6F8EC2201993000D3
:100FC000D6F8E832984701289CD000200500019807
:100FD000002800F09B8003AA04A90198FFF785F977
:100FE0000400DFF87409844205D10198C6F8C002F4
:100FF000012005008AE0002C40F0888005A80090C0
:10100000012302AA0021019801F09FFA00287DD156
:101010009DF80800C0B200098DF808009DF808008E
:10102000012816D0022815D0032819D004281DD075
:1010300006281BD008281ED009281DD00A281AD03F
:101040000B2819D00C281CD00D281BD00E281DD021
:1010500020E01FE0002201993000FFF739FB19E082
:1010600001993000FFF714FC050013E001993000EE
:10107000FFF745FD0EE00DE001993000FFF709FE96
:1010800008E007E03000FFF78FFE03E03000FFF7D5
:1010900096FEFFE7002D39D103990498411803917A
:1010A0000198406A8046039840452FD20198416AD2
:1010B0000398091A884603990198C26801988068C4
:1010C000121A914214D303990198C068091A019821
:1010D00080684118039101980700019840680190C9
:1010E00000207860380001F005FB01980028E2D16B
:1010F000019800283FF46BAF019880680399084479
:10110000019988600198C0F8248060E7002D7FF481
:10111000F9AE019801F0EEFAF4E606B0BDE8F08110
:1011200007000100080001000F00010038B50500AC
:10113000D5F8F80200281DD0002215F5C67115F566
:10114000AC6001F00DFE0400552C0FD000212800EA
:1011500000F089F8D5F8DC02002806D0D5F8E022A6
:1011600021002800D5F8DC32984719E00120C5F8A5
:10117000DC0B15E00021280000F0F0FB0400002C3F
:101180000ED00021280000F06EF8D5F8DC0200280F
:1011900006D0D5F8E02221002800D5F8DC329847A7
:1011A00031BD38B50500002115F5AC6001F00CFE2D
:1011B0000400002C19D10020C5F8DC0B0021280008
:1011C00000F0CCFB0400002C20D00021280000F00F
:1011D0004AF8D5F8DC02002818D0D5F8E022210022
:1011E0002800D5F8DC32984710E0552C0ED00021AD
:1011F000280000F038F8D5F8DC02002806D0D5F831
:10120000E02221002800D5F8DC32984731BD2DE9D5
:10121000FC4706000F0090461C00DDF828905FF0A8
:10122000000A2000000A8DF8040020008DF8050057
:10123000CDF80090336B022201A9380001F072F85A
:101240000500002D01D028000BE0002C08D0CDF8BF
:101250000090336B22004146380001F063F805002E
:101260002800BDE8F68738B504000D005FF0FF31B7
:10127000606B01F0CBF90120C4F88801606B01F0CC
:101280000DFAD4F8F802002808D0290014F5AC6053
:1012900001F0D4FD14F5AC6001F0FEFD290014F559
:1012A000C67001F02FFE14F5C67001F021FFD4F8CE
:1012B0008001002803D014F1380001F0DFFF31BDB8
:1012C00038B504002500D5F8700100280FD001F0D2
:1012D00093FAD5F87411401AD5F86C11884206D3E8
:1012E0000022102115F5A47001F0B4FB0EE001F00E
:1012F00083FAD5F87C11D5F87821101A814205D3EC
:101300000022012115F5A47001F0A4FB31BDF8B550
:1013100004000D00160027005FF0FF31786B01F02C
:1013200075F9F00707D5D7F88801032803D10C21F8
:10133000380000F0BEFD700602D53800FFF7F6FE5B
:10134000B0070AD5D7F8DC0B002803D03800FFF728
:1013500028FF02E03800FFF7D1FDF00602D5380083
:10136000FFF72DFDB00602D53800FFF728FD300746
:101370003AD5D7F88801032802D13800FFF71FFDBE
:10138000B86B002803D017F1380001F077FFD7F8C9
:101390004801002803D017F5A47001F0A1FFD7F889
:1013A000CC02002806D00022D7F8CC123800FFF774
:1013B0007BF9F4E70020C7F8D402D7F8C40200286C
:1013C00006D00022D7F8C4123800FFF757F9F4E727
:1013D000786B01F063F917F1640001F0B3FF17F5C2
:1013E000C67001F0E1FF02E0786B01F057F9F1BD42
:1013F0003EB5040025005FF0FF30009001AB0122F4
:101400005FF0FF3115F5A47002F024F8019A002175
:101410002800FFF77CFF01980007ECD537BD38B5F1
:101420000400D4F824510022202115F5A47001F005
:1014300011FB31BDF0B585B004000D0016001F0092
:101440000E9804900D9803900C9802900B980190C0
:101450000A9800903B0032002900200000F00BF8B1
:101460000100002901D0080003E00120C4F8880130
:10147000002005B0F0BD2DE9FC4F87B006000F003D
:10148000DDF84880DDF84C90DDF858A04FF43E655B
:101490005FF0000B34005A462900200001F022F8CA
:1014A00034230022390016F1640002F01DF8040014
:1014B000002C02D0DFF8140B6CE016F164007063AE
:1014C000B02006900020059002200490CDF80CA0DA
:1014D000CDF808A015980190149800903300DFF81B
:1014E000F02A390016F1980002F078F80500002D76
:1014F00006D016F1640001F025FFDFF8D00A49E0BC
:101500002422390016F5A47002F034F90400002CEE
:101510000AD016F1640001F015FF16F1980002F0F0
:1015200099F9DFF8A80A35E0079870600898B0606C
:10153000C6F82C80C6F830903760DFF8980A04901F
:10154000002003904FF400500290802001904FF44F
:10155000804000900023326816F5C671F06A02F0F0
:1015600097F90500002D0ED016F1640001F0EAFE97
:1015700016F5A47001F0B4FE16F1980002F06AF9B5
:10158000DFF8480A06E0C6F8B06216F1980002F0EB
:1015900011FA002009B0BDE8F08F2DE9FC47814623
:1015A0008A460024D9F8C462002E45D0B06800787D
:1015B00080464046C0B210F0F00030283AD1534681
:1015C000D9F830206946300001F068FA0700002F92
:1015D00002D0DFF8680B37E0D9F8340001F05EF88C
:1015E000D9F8F802002807D05246009919F5AC60E6
:1015F00001F00EF9040006E05246009919F5C67094
:1016000001F040F90400002C05D0009801F072F8B8
:10161000DFF8DC0B04005146D9F8340000F0F6FF87
:101620000500002D02D0DFF8280C0DE0002C01D0C1
:10163000200009E0F669B7E701F0DEF8D9F880117B
:101640000818C9F878012000BDE8F6872DE9F04FA9
:1016500089B08046894692461D00DDF848B0139E49
:101660005FF0FF31D8F8340000F0D0FF0400002C08
:101670000AD0D8F8F802002803D018F5AC6001F0C1
:101680000BFCDFF84C0A61E1D8F88801032806D189
:10169000D8F8340001F002F85FF0011056E1D8F8F4
:1016A0008801022806D1D8F8340000F0F7FFDFF8EF
:1016B000A40B4BE1D8F8880101280AD0D8F8F80229
:1016C000002803D018F5AC6001F0E6FBDFF8DC0B76
:1016D0003CE1D8F8F802002805D1D8F8340000F031
:1016E000DDFF9C4832E1642000FB05F0C8F8800172
:1016F000002D2AD06420C8F87C016420C8F86C0151
:101700002C20039001200290D8F87C010190D8F899
:101710007C0100904346DFF8982BDFF8981B18F106
:10172000380002F059F90400002C14D0D8F8F8025F
:10173000002803D018F5AC6001F0AEFBD8F83400F7
:1017400000F0ACFFDFF8840800E10020C8F87C015D
:101750000020C8F86C01C8F884B1002E21D1DFF850
:10176000581B18F5C67002F0BDF90400002C11D00A
:10177000D8F8F802002803D018F5AC6001F08CFB13
:1017800018F1380001F07AFDD8F8340000F086FF37
:101790002000DBE0DFF8241B18F5C67002F0A6F984
:1017A00002E00020C8F8A802D8F8340000F076FF64
:1017B0003200002118F5C67002F0B4F90700002FBE
:1017C0000ED0D8F8F802002803D018F5AC6001F06C
:1017D00063FB18F1380001F051FDDFF8F007B5E0C8
:1017E0005FF0FF31D8F8340000F010FF0220C8F895
:1017F0008801D8F8340000F051FF330052464946C2
:1018000018F5C67002F03CFA0400002C20D0372CEA
:101810001ED05FF0FF31D8F8340000F0F7FE012051
:10182000C8F88801D8F8340000F038FFD8F8F8027A
:10183000002803D018F5AC6001F02EFB18F5C67037
:1018400001F056FC18F1380001F018FD41487DE028
:10185000372C01D1372079E018F19800089000204A
:10186000049000200390002002900020019007A81F
:101870000090002300220021089802F0F9FA02F0FB
:101880001BFB05AA079902F023FBD8F8F8020028F1
:1018900015D0320018F5C67118F5AC6001F060FA89
:1018A0000400002C0BD002F007FB05AA059902F0FA
:1018B0000FFB00214046FFF7D6FC264846E03100EA
:1018C000404600F04BF80700002F0BD002F0F4FA6E
:1018D00005AA059902F0FCFA00214046FFF7C3FC77
:1018E0001C4833E0D8F8F802002807D0320006A9D7
:1018F00018F5AC6001F04CF9040006E0320006A9CE
:1019000018F5C67001F07CF9040002F0D5FA05AABA
:10191000059902F0DDFA002C06D000214046FFF7C1
:10192000A2FCDFF8CC0811E0320006994046FEF731
:10193000CFFE0700069800F0DDFE002F05D1DFF88E
:101940007C1918F5C67002F0D1F8380009B0BDE86E
:10195000F08F000005000100100001002DE9FE4F8E
:101960000700884600255FF0000A0024D7F88001B0
:101970006421B0FBF1F9F868002806D05AF0800A1B
:101980007869002801D05AF0400AF86900280CD084
:101990005AF0040AB87E000601D55AF0200AB87E33
:1019A000C00010F0180050EA0A0AD7F88401012894
:1019B0000CD15AF0020AD7F8C402002806D000223F
:1019C000D7F8C4123800FEF759FEF4E75FF00A0BAF
:1019D000B86810EB0B0B1BF1020B5FEA4A7009D5DC
:1019E000386A10EB0B0B1BF1020BB86A10EB0B0BF8
:1019F0001BF1020B5FEA0A6003D5388A801C10EBEA
:101A00000B0B5FEA4A6003D5388B801C10EB0B0B85
:101A1000DFF8AC08834502D3DFF8B005B2E001A9D6
:101A20003800FEF7B7FD0500002D01D02800A9E021
:101A300010208DF80800CDF800805B469DF8082046
:101A400001993800FEF728FC0600002E05D0019809
:101A500000F050FEDFF8E40694E0CDF800800423A7
:101A6000DFF8602801993800FFF7D1FB0400002C53
:101A700005D0019800F03EFEDFF8C00682E00420A9
:101A80008DF808008DF809A04846000A8DF80A0074
:101A900048468DF80B00CDF800803B6B042202A96C
:101AA000019800F03FFC0600002E05D0019800F0E0
:101AB00021FEDFF8880665E0CDF80080BB687A6813
:101AC00001993800FFF7A3FB0400002C16D15FEA50
:101AD0004A7013D5CDF800803B6AFA690199380045
:101AE000FFF795FB0400002C08D1CDF80080BB6AFD
:101AF0007A6A01993800FFF78AFB0400002C0BD1A9
:101B00005FEA0A6008D5CDF800803B8AFA6801993F
:101B10003800FFF77CFB0400002C0BD15FEA4A6021
:101B200008D5CDF800803B8B7A6901993800FFF722
:101B30006EFB0400002C05D0019800F0DBFDDFF8FF
:101B4000FC051FE0D7F8F802002807D042460199AB
:101B500017F5AC6000F05CFE060006E04246019915
:101B600017F5C67000F08EFE0600002E02D0019818
:101B700000F0C0FD00F040FED7F880110818C7F84B
:101B800078013000BDE8FE8F2DE9FE4305000E0010
:101B900017009846DDF8289015F5866315F5407214
:101BA00015F5AC612800C0470400002C01D02000CE
:101BB0000CE00120C5F8F8020C9801900B980090F9
:101BC0004B463A0031002800FFF740FDBDE8FE8398
:101BD00010B504000022082114F5A47000F03AFFAB
:101BE000D4F88C01002803D0642002F09BF9F7E7B9
:101BF00014F1980001F02EFE002010BD2DE9FF47E2
:101C000006000F0090461D00DDF830905FF0000ADE
:101C1000002D2DD0CDF804900120009043469BB2BA
:101C200002AA39003000FEF701FD002802D0DFF8DB
:101C30000C054BE05FF0FF31706B00F0E7FC040037
:101C4000002C05D0029800F055FDDFF884043DE03B
:101C5000D6F8C402002803D10298C6F8C40203E0F3
:101C60000298D6F8C812C8610298C6F8C8020AE0FD
:101C70005FF0FF31706B00F0C9FC0400002C02D053
:101C8000DFF84C0422E000F0B7FDD6F88011081808
:101C9000C6F87801706B00F001FDD6F8F802002854
:101CA00007D04A46390016F5AC6000F0B1FD0100DE
:101CB00006E04A46390016F5C67000F0E3FD010063
:101CC000002902D0DFF828058246504604B0BDE85E
:101CD000F0872DE9FF4F85B00700129DDDF8508099
:101CE000DDF8549000240020ADF80A000020049094
:101CF000B8F1020F02D1DFF8DC03B5E0D7F88801B4
:101D0000032802D0DFF8C005AEE001A93800FEF7D5
:101D100041FC03900398002802D0DFF82004A3E0E0
:101D20005FEA480A5AF0300A1398002801D05AF0A6
:101D3000010ADDF81CB01BF1020BB8F1010F02D053
:101D4000B8F1020F01D11BF1020B0898002803D053
:101D5000002D01D015EB0B0BCDF800905B465246E1
:101D6000D2B201993800FEF797FA0600002E05D08E
:101D7000019800F0BFFCDFF8540575E0CDF8009045
:101D8000079B069A01993800FFF741FA0400002CDE
:101D900005D0019800F0AEFCDFF8300564E0B8F142
:101DA000010F02D0B8F1020F38D15FF0FF31786B2C
:101DB00000F02CFC03900398002801D0C44853E0A5
:101DC000D7F8BC02ADF80A00D7F8BC02000A8DF8BB
:101DD0000800D7F8BC028DF80900D7F8BC02401CF7
:101DE00080B2C7F8BC02D7F8BC02002802D101209B
:101DF000C7F8BC02786B00F051FCCDF800903B6B4B
:101E0000022202A9019800F08DFA0400002C05D0EE
:101E1000019800F06FFCDFF8B40425E00898002872
:101E200012D0002D10D0CDF800903B6B2A000899FD
:101E3000019800F077FA0400002C05D0019800F01A
:101E400059FCDFF888040FE0CDF800904346BDF858
:101E50000A2001993800FFF7D1FE0600002E02D0BB
:101E6000019800F047FC300009B0BDE8F08FFEB5E6
:101E700004000D0016001F00022F01D1954808E054
:101E800001970020009033002A0082212000FEF7F5
:101E900076FAFEBD7CB504000D001600002001900E
:101EA0000020009033002A00A2212000FEF767FAEC
:101EB00076BD2DE9FC4106000F0069463000FEF7B3
:101EC00069FB0400002C01D040485DE000984169A6
:101ED0000098C068091A022904D2009800F00AFC90
:101EE000092051E00098D0F80880380188F80000F7
:101EF000002088F8010000988068801C0099C86064
:101F0000022000994862706B00F0C8FBD6F8F80216
:101F1000002808D05FF0FF32009916F5AC6000F0A1
:101F200077FC050007E05FF0FF32009916F5C670F8
:101F300000F0A8FC05005FF0FF31706B00F066FB5D
:101F40000400002D04D0009800F0D4FBA848050040
:101F5000002C02D0DFF8F80216E03800C0B20C28DE
:101F60000AD1D6F87001012806D000F045FCC6F869
:101F700074010120C6F8700100F03EFCD6F8801113
:101F80000818C6F878012800BDE8F68138B50500C4
:101F90005FF0FF31686B00F039FB0400002C09D0C2
:101FA000D5F88001002803D015F1380001F066F95A
:101FB000A7480AE00E212800FFF77BFF2800FEF764
:101FC000FEFE686B00F06AFB200032BD04000100D9
:101FD000F11300081F14000838B504000D005FF06D
:101FE000FF31606B00F012FBC4F8D852606B00F058
:101FF00055FB002032BD2DE9F84F86B004000D00DE
:1020000016001F00DDF84080DDF84490DDF848A0A0
:102010005FF0FF31606B00F0F9FAD4F8D4020028C9
:102020004ED0D4F8CC02834602A8009004AB01AA9B
:1020300005A95846FEF7C5FB0390039800280BD16D
:10204000BDF80400864202D30298814504D2606B39
:1020500000F024FB9E4837E0DBF81C00C4F8CC02FB
:10206000D4F8D002584502D10020C4F8D002D4F8E8
:10207000D402401EC4F8D402039800281CD10020CA
:1020800038600020CAF800000097BDF804302A002C
:102090000599584600F059FACDF800A0029B424637
:1020A0000499584600F051FA584600F023FB606B43
:1020B00000F0F4FA002007E0584600F01BFBACE704
:1020C000606B00F0EBFA834807B0BDE8F08F0000CA
:1020D000030001000C0001002DE9F04F87B004005F
:1020E000894692469B46109D119E129FDDF84C80BA
:1020F000002C0CD0002D0AD028687749884206D1E0
:10210000002F04D0B8F1000F01D0002E01D107201C
:1021100010E0169806901598059014980490CDF844
:102120000C800297019600955B4652464946200076
:10213000FFF780F907B0BDE8F08F0000060001004E
:10214000FEB506000D0014001F00002E01D107206F
:1021500013E0002D01D107200FE0002C01D1462013
:102160000BE00A98029009980190089800903B00B3
:10217000220029003000FFF707FDFEBD10B5040066
:10218000002C01D1072002E02000FFF721FD10BD47
:102190002DE9F84384B080460F0016001D000C9C0A
:1021A000DDF83890B8F1000F01D107201DE0002FB5
:1021B00001D0002E01D1494817E0002D03D0002C9A
:1021C00001D1464811E0B9F1040F01D343480CE0B6
:1021D0000F980390CDF808900D98019000942B0073
:1021E000320039004046FFF774FD05B0BDE8F083CA
:1021F00007000100F8B506000D0014001F00002EB6
:1022000001D107200FE0002D01D0002C01D133486F
:1022100009E0032F01D3314805E03B0022002900EB
:102220003000FFF724FEF2BD70B506000D0014006B
:10223000002E01D107200AE0002D01D0002C01D191
:10224000264804E0220029003000FFF723FE70BD7D
:10225000030001001100010010B50400002C01D1A1
:10226000072002E02000FFF791FE10BD2DE9FF419D
:1022700006000D00170098460A9C002E01D1072089
:1022800010E0002C01D0002D01D114480AE00C9878
:1022900002900B980190009443463A0029003000C8
:1022A000FFF7A9FE04B0BDE8F081000012000100B4
:1022B000C1120008A4800208F10500080F060008FA
:1022C000027E810FA08102080200010004000100CB
:1022D0000D0001000A000100202050490900010002
:1022E00038B504000D00002C01D1072008E02800BB
:1022F000002801D1072003E029002000FFF76CFE31
:1023000032BD0200C2F8E4120020704738B5040064
:102310000D00002C01D1072003E029002000FFF769
:10232000F0FF32BD2DE9FB4F84B08046140000263B
:10233000D8F81800002817D05FF00009D8F8180066
:1023400000900098406910EB090948460099D1F8BF
:102350000C90B0EB090900980600009840680090C6
:1023600000980028EDD105E0D8F81400D8F80C90BA
:10237000B0EB0909A14539D200200500A1452DD2B5
:10238000109B00226946069800F0CCFA0190019853
:10239000002806D0002D02D0280000F0ABF90198EB
:1023A00062E0002D0DD0A869002805D00098A96929
:1023B00048600098A86106E00098A86100986860ED
:1023C00001E0009805000098406910EB09094846B3
:1023D0000099D1F80C90B0EB0909CFE7002E01D09D
:1023E000756001E0C8F804500020A861D8F8240006
:1023F0002018C8F82400DDF814A0D8F81800002828
:1024000003D0D8F81800009001E0CDF80080002C2F
:1024100029D0009841690098C068091A8C4201D2FD
:10242000270005E0009841690098C068091A0F006C
:102430000397CDF808A00098D0F80CB0039A029941
:10244000584601F0BFFDE41B0098C068384400996D
:10245000C860002CDBD0BA44009840680090009817
:10246000C8F81800D3E7002007B0BDE8F08FF0B43B
:102470000246106895681318506803EB5004C007B3
:102480001BD54D4419E013F8017B05F8017B491E6B
:10249000F9D190B113F8011BC6F38106032E08BFD2
:1024A00013F8016B01EB062149422944801C11F805
:1024B000016B05F8016B401EF9D1A3420ED013F851
:1024C000016B16F0030104BF13F8011BC91C30098E
:1024D0000F28DCD113F8010B0F30D8E7F0BC02F164
:1024E0000C00704762F30F2262F31F42401810F095
:1024F000030308D0C91A1FD3DB0748BF00F8012D1A
:1025000028BF20F8022D130030B4144615461039A8
:1025100028BF20E93C00FAD8490728BF20E90C0071
:1025200048BF40F8042D890028BF20F8022D48BF7D
:1025300000F8012D30BC7047C91818BF00F8012DF4
:10254000CB0728BF00F8012D70472DE9FD4F84B05F
:102550000E00049C606A864208D3002E04D100203D
:1025600010990860002049E0532047E00027B0465A
:10257000002C0FD0E168A068091A009100988045EE
:1025800003D2A0684044070004E00098B8EB0008BC
:102590006468EDE7002F01D153202FE0DDF814909F
:1025A0000498D0F824A0BAEB060A0698824504D213
:1025B0001098C0F800A0554603E0069810990860EE
:1025C000069D002C19D0002D17D0E068C01B824654
:1025D000554500D2AA46CDF808A00197CB46029AED
:1025E0000199584601F0EEFCD144B5EB0A05646848
:1025F000002CE6D0A0680700E3E7002007B0BDE8A4
:10260000F08F0268531C036011707047F8B5050025
:102610000E000024002D02D11C2004001AE02868BE
:102620001A49884202D01C20040013E0002E11D069
:1026300017480068EFF305810843002802D0042002
:10264000040007E01348006807001348874201D1DF
:1026500004200400002C10D10D480068EFF3058120
:102660000843002809D00A480168EFF305800143B8
:10267000B1F1F03F01D213200400002C04D131004D
:10268000280001F0F3FC04002000F2BD4554554D34
:1026900088050024AC5E01248855012438B5040067
:1026A0000025002C02D11C20050017E020680F49EE
:1026B000884202D01C20050010E00D480068EFF3AE
:1026C00005810843002809D009480168EFF3058017
:1026D0000143B1F1F03F01D213200500002D03D1D9
:1026E000200001F067FD0500280032BD4554554D1E
:1026F000880500242DE9F8430400002C74D0206ADA
:10270000B0F1AA3F0BD02168002906D00868384AEA
:10271000904202D18869401C8861072065E06068AA
:102720000700EFF3108072B6060020688046D8F8E4
:102730002C000500002D45D0286F854203D10020D4
:10274000C8F82C0008E0286FC8F82C00686F296FC3
:102750004867286F696F0867D8F83000401EC8F8CE
:1027600030000020A86623480068401C214908600A
:10277000B14689F310880020E061002060600020ED
:10278000A061002060622069A96F0844A060A06871
:10279000E060002020630020A0635FF0AA30206288
:1027A000002084F82C00002084F82D00002084F8FC
:1027B0002E00E86F04600020C5F88400280001F0B6
:1027C00057FE0FE05FF0FF302062D8F81C00E06198
:1027D000C8F81C40D8F80800401CC8F808003000B1
:1027E00080F310883C0088E70020BDE8F28300BF3A
:1027F0004B434150C45E0124EFF3108172B603488D
:1028000000680A0082F31088704700BFD05E012480
:1028100070B504000D001600002C01D1072027E040
:10282000002D01D1072023E06068002802D140F28A
:1028300001101DE020680F49884202D040F20110CB
:1028400016E00D480068EFF305810843002808D121
:102850000A480068002804D00848006808498842EF
:1028600001D1112004E032002900200001F0B0FE67
:1028700070BD00BF20534C5488050024AC5E012479
:102880008855012470B504000D001600320029009F
:10289000200001F0B9FE70BDF8B504000D0016006F
:1028A0001F0020681B49884202D040F201102FE02F
:1028B0006068002802D140F2011029E06068406998
:1028C000042806D060684069062802D040F2011052
:1028D0001EE06068806B052802D040F2011017E00E
:1028E0000D480068EFF305810843002808D10B4824
:1028F0000068002804D0094800680949884201D1CD
:10290000112005E03B0032002900200002F00AFA05
:10291000F2BD00BF20534C5488050024AC5E012456
:10292000885501242DE9F84F05000E0017001C0002
:10293000A86AB84201D24D2084E000203060EFF355
:10294000108972B6A868002833D0A868401EA86015
:10295000E8698046D8F81C00E8610020C8F81C002F
:102960000020C8F804000020C8F818000020C8F8AB
:102970002400D8F810003844C8F80800D8F8080037
:10298000C8F80C000020C8F830000020C8F8380053
:102990005FF0AA30C8F82000042088F82C0000203E
:1029A00088F82D00002088F82E00C6F8008000204E
:1029B00045E02869401C2861002C3FD06869401C14
:1029C00068612148D0F800A02048CAF86800CAF819
:1029D0006C50CAF87C60CAF87870E86A00280ED09B
:1029E000E86ACAF87000E86A406FCAF87400E86ADA
:1029F000406FC0F870A0E86AC0F874A005E0C5F8A0
:102A00002CA0CAF870A0CAF874A0286B401C2863D8
:102A10000C20CAF830000120CAF838000C480068C1
:102A2000401C0B490860CAF84C40CB468BF3108819
:102A3000504602F0E3F9DAF8840003E00120494649
:102A400081F31088BDE8F28FAC5E0124297702087B
:102A5000C45E0124F8B504000F0015000026002C08
:102A600002D1062006000CE020680B49884202D003
:102A70000620060005E0022D03D0002D01D008201D
:102A80000600002E05D12A003900200002F07AFA53
:102A900006003000F2BD00BF4E4456442DE9FE4F03
:102AA00005000E0017009846002030605FF0010A14
:102AB000686A002801D1122067E04346002201A97C
:102AC0003800FFF72FFF0400002C01D020005CE04D
:102AD000286B01990863A86B01998863AB46BAF12A
:102AE000010F0DD1E9682869091A8946CDF80080DF
:102AF0003B004A4629690198FFF714FC04000CE0EA
:102B0000E968A868091A8946CDF800803B004A4662
:102B1000A9680198FFF706FC0400002C04D0019876
:102B2000FFF7E8FD200030E06D6800208246002DB0
:102B3000D5D1DBF80810DBF81000091A00910198D4
:102B4000006900990844019988600198416A0098D9
:102B5000091A01984162DBF83410DBF81000091AF9
:102B60000291019800690299084401994863DBF8D1
:102B700024000199496A884204D00198FFF7BAFD00
:102B8000122002E0019830600020BDE8FE8F2E0088
:102B900070B504000D001600002C01D0002D01D1ED
:102BA000072023E020681249884202D040F2011039
:102BB0001CE06068002802D140F2011016E00D48C8
:102BC0000068EFF305810843002808D10A4800682F
:102BD000002804D0084800680849884201D1112023
:102BE00004E032002900200002F01AFB70BD00BF93
:102BF00020534C5488050024AC5E012488550124E0
:102C00002DE9FC4706000F001400D6F8A080002034
:102C100038605FF0FF3118F59E7001F027FAD6F8A2
:102C2000E000002805D118F59E7001F0C3FA2420B9
:102C300090E0D6F8B40000280ED1B06B032805D37D
:102C4000B06B062802D0B06B092805D318F59E702A
:102C500001F0B0FA38207DE0D6F8B400002802D0A8
:102C6000D6F8B45000E00025002D50D0E869B0F14E
:102C7000BB3F4CD1D6F8B800854206D10020C6F83B
:102C8000B4000020C6F8B80002E0286AC6F8B40014
:102C9000D6F8B000401EC6F8B000D5F80890D9F8B4
:102CA0000C00000F5FEA800AA8685044A860686AB8
:102CB000B0EB0A0068625FF0AA3028620020E86189
:102CC0003D60D6F8B000002802D1306F706704E094
:102CD000716F3868406A41187167716FB06F091A77
:102CE000306FB1EB500F0CD3B06B052805D0B06B33
:102CF000072802D0B06B082803D1F16B300002F036
:102D0000D9FA18F59E7001F055FA002022E0002C47
:102D10001BD01148006818F5CC71884215D00E48B8
:102D20000068C767D6F8F000401CC6F8F0000094B1
:102D300018F59E733200094916F1EC0002F0D0FA42
:102D400005480068D0F8840004E018F59E7001F092
:102D500031FA0120BDE8F687AC5E0124CD590008A8
:102D600070B504000D001600002C01D1072021E0F1
:102D7000002D01D107201DE020680F49884202D0B4
:102D800040F2011016E00D480068EFF3058108439A
:102D9000002808D10A480068002804D008480068C4
:102DA0000849884201D1112004E0320029002000A6
:102DB00002F0DCFA70BD00BF20534C54880500249B
:102DC000AC5E0124885501247CB506000D00432427
:102DD00000200090706B012812D1B6F806060A2870
:102DE00007D02A006946300002F038FB0400002CAE
:102DF000F3D0B6F806060A2802D10098FFF77AFC4D
:102E0000706B022812D1B6F804060A2807D02A00EF
:102E10006946300002F022FB0400002CF3D0B6F823
:102E200004060A2802D10098FFF764FC012C03D1A4
:102E3000002D01D155200400200076BD38B50400D6
:102E40000D00002C01D107201CE020680E498842AB
:102E500002D040F2011015E00C480068EFF3058144
:102E60000843002808D10A480068002804D0084810
:102E700000680849884201D1112003E029002000A0
:102E800002F0F0FB32BD00BF20534C5488050024F3
:102E9000AC5E01248855012438B50500002D01D110
:102EA000072025E013480468002C01D107201FE00B
:102EB000AC4207D110480068EFF3058108430028B1
:102EC00011D107E0D4F810460A4800688442EBD1DB
:102ED00007200DE009480068002804D00748006872
:102EE0000749884201D1112002E0280002F038FC95
:102EF00032BD00BF345E012488050024AC5E01248D
:102F000088550124F8B586B005000C00D5F8A060FE
:102F100000275FF0FF3116F59E7001F0A7F8D6F894
:102F2000D000401CC6F8D000A86B05280ED0A86BB6
:102F300003280BD0A86B042808D0A86B062805D05E
:102F400016F59E7001F036F93820CBE0A86B032807
:102F500002D0A86B042835D1A868002814D0A86B2B
:102F600004280ED1D5F8D000C5F8CC000020C5F853
:102F7000D400E86B401CE863E96B491E280002F0AE
:102F800035FC0120A86319E0A86B042811D1A86AB8
:102F900000280ED0D5F8D000C5F8CC000020C5F828
:102FA000D400E86B401CE863E96B491E280002F07E
:102FB0001DFC0220A863286C401E28640020C5F870
:102FC000CC0040E0002C10D15FF480100490E86B3E
:102FD0000390286C029001A9280002F018FC280038
:102FE00002F040FC372007002DE0A86B062815D022
:102FF0000720A863D5F8C400002806D1D5F8D00072
:10300000C5F8CC000020C5F8D400E86B401CE8638C
:10301000E96B491E280002F0E9FB14E00B20A863CD
:10302000D5F8C400002806D1D5F8D000C5F8CC00EA
:103030000020C5F8D400E86B401CE863E96B491E2A
:10304000280002F0D3FBA86B012822D0A86B02282D
:103050001FD02548006816F5CC71884219D000941D
:1030600016F59E732A00214915F5807002F038F993
:103070005FF0FF3116F59E7000F0F8FFA86B0A288C
:1030800002D0280002F0EEFB17480068D0F8840058
:103090000700D5F8C400002802D0280002F0FCFB8D
:1030A000D5F8FC00002804D00021D5F8FC0002F07F
:1030B00023FCD5F8EC00002805D00021D5F8EC0061
:1030C00002F084FCF5E7D5F8F400002805D00021D3
:1030D000D5F8F40002F0F0FCF5E716F59E7001F06B
:1030E00069F8380007B0F0BDAC5E0124B92E0208C3
:1030F0002DE9F0470400D4F8A0605FF0FF3116F529
:103100009E7000F0B3FFA06B0A2802D1200002F0ED
:10311000A9FBA06B012805D016F59E7001F04AF8B6
:103120003520A8E0D4F8E000002814D1D4F8E80055
:1031300000280AD00021D4F8E80002F03DFD16F581
:103140009E7001F037F8002095E016F59E7001F0B2
:1031500031F824208FE0E76817EB172818F01F08D4
:10316000EFF3108972B6D4F8B000002802D0200026
:1031700002F096FDD4F8E000A04208D1002006EB52
:103180008801C1F808040020C4F8E0001AE0D4F86F
:10319000E400D4F8E010C1F8E400D4F8E000D4F87A
:1031A000E410C1F8E00006EB8800D0F80804A04263
:1031B00005D1D4F8E00006EB8801C1F8080400202E
:1031C000C4F8E000494681F31088D4F804010028CF
:1031D0004CD0D4F80401C06E05000020C5F8E8000A
:1031E000D4F80401C5F80401D4F80801401EC5F85C
:1031F00008010020C4F804010020C4F80801EFF31E
:10320000108072B6814606EB8800D0F808040028CA
:103210001CD006EB8800D0F80804C5F8E00006EBE7
:103220008800D0F80804D0F8E400C5F8E40006EB04
:103230008800D0F80804D0F8E400C0F8E05006EBAD
:103240008800D0F80804C0F8E45007E0C5F8E05062
:10325000C5F8E45006EB8800C0F80854CA468AF363
:103260001088002115F5827002F038FD16F59E7069
:1032700000F0A0FF0020BDE8F087704770B50400A3
:103280000025002C02D1152005001EE02068104901
:10329000884202D01520050017E00E480068EFF3C1
:1032A00005810843002802D0132005000DE00A48DC
:1032B000006806000948864201D113200500002D50
:1032C00003D1200002F03AFD0500280070BD00BFC8
:1032D0004D49544188050024AC5E012488550124E1
:1032E00070B504000025002C02D1062005001EE068
:1032F00020681049884202D00620050017E00E48D9
:103300000068EFF305810843002802D01320050070
:103310000DE00A48006806000948864201D11320E2
:103320000500002D03D1200002F038FD0500280023
:1033300070BD00BF4E44564488050024AC5E012495
:103340008855012470B504000025002C02D11C20F2
:1033500005001EE020681049884202D01C200500AC
:1033600017E00E480068EFF305810843002802D0FB
:10337000132005000DE00A4800680600094886424F
:1033800001D113200500002D03D1200002F06EFDB5
:103390000500280070BD00BF4554554D8805002428
:1033A000AC5E012488550124F8B50400D4F8A0507F
:1033B0005FF0FF3115F59E7000F058FE206824493B
:1033C000884205D015F59E7000F0F4FE27203EE0FF
:1033D000D4F8E000002806D1D4F8E800002802D193
:1033E000A06B012805D015F59E7000F0E3FE422089
:1033F0002DE0EFF3108672B600202060D4F80C01A7
:10340000844203D10020C5F8880413E0D4F81001E9
:10341000D4F80C11C1F81001D4F80C01D4F8101133
:10342000C1F80C01D5F88804A04203D1D4F80C01EE
:10343000C5F88804D5F88C04401EC5F88C04370004
:1034400087F3108815F59E7000F0B4FE0020F2BDE1
:10345000205043542DE9FC470500884691461E0044
:103460000A9F0024002D02D1062004001FE02868D6
:103470001949884202D00620040018E0002E02D12B
:103480000320040013E0002F11D014480068EFF36C
:1034900005810843002802D00420040007E01048FA
:1034A000006882460F48824501D104200400002CA8
:1034B00004D1B9F1040F01D308200400002C07D176
:1034C000009733004A464146280002F047FD0400B9
:1034D0002000BDE8F68700BF4E445644880500240E
:1034E000AC5E0124885501242DE9F24F82B005001D
:1034F00016001F000024002D02D11C20040039E01A
:10350000342F02D01C20040034E0EFF3108B72B68D
:103510002C480068401C2B490860584680F31088EE
:10352000294909688A46002189462848006881455A
:1035300006D2554504D0DAF820A019F10109F4E7C4
:10354000EFF3108872B61F480068401E1D490860DE
:10355000CDF80480019880F3108802F0ABFD55454A
:1035600002D11C20040005E0012E03D0002E01D062
:103570001F200400002C19D1154800680090009805
:103580001449884201D11320040013480068EFF366
:1035900005810843002809D00F480168EFF3058032
:1035A0000143B1F1F03F01D213200400002C05D1FA
:1035B00032000299280002F0A3FD04002000BDE8BB
:1035C000FE8F00BFC45E01248C5E0124905E012446
:1035D000AC5E012488550124880500242DE9FE4FA6
:1035E0008AB00600169C179FDDF860800025002E2B
:1035F00002D10E20050099E01C98B02802D00E20C0
:10360000050093E0EFF3108072B60690534800680F
:10361000401C52490860069880F3108800218946B2
:103620004F4909688A4621003944491E0991099980
:10363000079100218B464B480068834525D25645AB
:1036400001D101208146B9F1010F1ED0DAF80C003A
:10365000844207D3DAF81000844203D20020040029
:10366000012081460798DAF80C10884208D30798A1
:10367000DAF81010884203D20020040001208146AD
:10368000DAF888A01BF1010BD5E7EFF3108072B6D2
:10369000069032480068401E304908600698009045
:1036A000009880F3108802F005FD564502D10E20E7
:1036B00005003BE0002C02D10320050036E00B980A
:1036C000002802D10320050030E0C82F02D20520D7
:1036D00005002BE0B8F1200F02D30F20050025E0F4
:1036E0001998804502D2182005001FE01B98022877
:1036F00002D31020050019E01B48006808900898C4
:103700001A49884201D11320050019480068EFF3D7
:1037100005810843002809D015480168EFF30580AA
:103720000143B1F1F03F01D213200500002D10D16B
:103730001B9805901A98049019980390CDF808806A
:10374000019700940C9B0B9A0A99300002F01AFD25
:10375000050028000DB0BDE8F08F00BFC45E012455
:10376000B45E0124B85E0124AC5E012488550124B6
:10377000880500242DE9FE4F04000E0017000025E7
:10378000002C02D1062005004DE0242F02D0062097
:10379000050048E0EFF3108B72B628480068401C23
:1037A00026490860584680F31088254909688A46EA
:1037B0000021894623480068814506D2544504D03B
:1037C000DAF818A019F10109F4E7EFF3108872B6DE
:1037D0001A480068401E19490860CDF80480019815
:1037E00080F3108802F066FC544502D106200500E3
:1037F00019E015480068009000981449884201D1EA
:103800001320050012480068EFF3058108430028E3
:1038100009D00F480168EFF305800143B1F1F03F93
:1038200001D213200500002D04D13100200002F048
:1038300071FD05002800BDE8FE8F00BFC45E0124B5
:10384000845E0124885E0124AC5E01248855012435
:103850008805002410B504000B480068EFF30581CB
:103860000843002801D013200CE0002C01D10E20C9
:1038700008E020680549884201D00E2002E02000BF
:1038800002F080FD10BD00BF88050024445248545A
:103890002DE9FE4F04000D000E9E0F9FDDF84080C5
:1038A0004FF496795FF0000AAB46524649465846B7
:1038B000FEF718FEC5F8A0400120A86001986860D6
:1038C0000020E8660020286140F2B4502862029887
:1038D000C5F8A4000C9810F48040C5F8AC000D9811
:1038E000C5F8A8000020C5F8E8002F480068A864C3
:1038F0002E480068C5F8D0000A20C5F8D80000207E
:10390000C5F8DC001420C5F828011420C5F8BC0057
:103910002E676E670020E865002068650020A865B6
:103920000120A866C5F81471C5F818810020C5F8F3
:103930001C010120A8635FF0FF3114F59E7000F0B8
:1039400095FBEFF3108B72B619482860D4F8880401
:10395000002813D0D4F88804D0F810010090D4F8CF
:103960008804C0F810510098C0F80C510098C5F8B0
:103970001001D4F88804C5F80C0105E0C4F8885497
:10398000C5F81051C5F80C51D4F88C04401CC4F88B
:103990008C04D94689F3108814F59E7000F00AFC57
:1039A0000020BDE8FE8F00BF5C5E0124605E012444
:1039B0002050435410B50400002C01D10E2008E023
:1039C00020680449884201D00E2002E0200002F065
:1039D00015FD10BD445248542DE9FE4F84B005003A
:1039E000109E129F0024002D02D1152004003FE0FC
:1039F00013982C2802D01520040039E0EFF3108B27
:103A000072B632480068401C30490860584680F35E
:103A100010882F4909688A46002189462D48006888
:103A2000814506D2554504D0DAF824A019F10109E0
:103A3000F4E7EFF3108872B624480068401E23496B
:103A40000860CDF80080009880F3108802F032FB07
:103A5000554502D1152004000AE0002E02D116209F
:103A6000040005E0012F03D0002F01D0172004002F
:103A7000002C19D118480068039003981749884210
:103A800001D11320040016480068EFF305810843B4
:103A9000002809D012480168EFF305800143B1F115
:103AA000F03F01D213200400002C0AD10297119894
:103AB00001900096069B059A0499280002F0DEFC0E
:103AC0000400200007B0BDE8F08F00BFC45E0124F1
:103AD000E85E0124EC5E0124AC5E012488550124DB
:103AE0008805002402004B2070477047F8B5040099
:103AF0000D005FF0FF31D4F8A00010F59E7000F0CB
:103B0000B5FAEFF3108672B6C4F81C51370087F38C
:103B10001088D4F8A00010F59E7000F04BFB002038
:103B2000F2BD00002DE9F34F81B006001500D6F874
:103B3000A0805FF0FF3118F59E7000F097FAD6F87C
:103B4000E000002803D1D6F8E800002805D018F5D9
:103B50009E7000F02FFB22208BE00298002817D1E6
:103B600002F0DCFC4FF4804190FBF1F201FB12000B
:103B700010F54040029002AA0299404602F01CFD56
:103B8000002805D018F59E7000F014FB452070E069
:103B90000298F060DDF80890029819EB102919F0EE
:103BA0001F0908EB8900D0F80844002C08D0270032
:103BB000E0680299884203D0D4F8E040BC42F7D1D3
:103BC000002C03D0E0680299884232D0EFF3108ACB
:103BD00072B6002C1CD008EB8900D0F80804C6F897
:103BE000E00008EB8900D0F80804D0F8E400C6F83B
:103BF000E40008EB8900D0F80804D0F8E400C0F82D
:103C0000E06008EB8900D0F80804C0F8E46007E041
:103C1000C6F8E060C6F8E46008EB8900C0F8086404
:103C2000D3468BF3108818F59E7000F0C3FA00207D
:103C30001FE0002D18D0D4F80801401CC4F808017A
:103C40000D480068C6F8E800C6F8E440009518F58D
:103C50009E733200094914F5827001F041FB064859
:103C60000068D0F8840004E018F59E7000F0A2FA15
:103C70002320BDE8FE8F00BFAC5E0124B95B0008C5
:103C80002DE9F74F05000E001C00002700200190D1
:103C9000D5F8A080306804280AD115F12C0301AAB8
:103CA0007168404602F0C4FC002801D02120D9E010
:103CB0005FF0FF3118F59E7000F0D8F9D5F8E000FC
:103CC000002805D118F59E7000F074FA2420C9E090
:103CD000A86B012808D0A86B0A2805D018F59E709B
:103CE00000F068FA3520BDE0D8F8CC00401CC8F8D8
:103CF000CC00D8F8C400401CC8F8C4000320A86356
:103D0000306868613068042803D17068A8611420A5
:103D100007000298E8610198002804D15FF0FF30A5
:103D200000F000F9FAE70198406A17F11C01884297
:103D300020D2D8F8CC00401EC8F8CC00D8F8C40077
:103D4000401EC8F8C4000120A8635FF008095FF0B6
:103D5000000A15F1140B524649465846FEF7C2FBBD
:103D60000020E8610020E86218F59E7000F022FA59
:103D70004C2077E00198A862E86B002809D102F096
:103D8000CDFB0004E86302F0C9FBE96B0843E8637C
:103D900006E002F0C3FBE96B401810F58030E863E1
:103DA000286F6867286FA8670020A5F850000020DA
:103DB000A5F85200E86B401CE863D5F8D000C5F8C0
:103DC000CC000020C5F8D400D5F8B000002802D0FF
:103DD000280001F065FF0020A8650020E8650020AC
:103DE000E8670020C5F880000020C5F884000020A6
:103DF000C5F888000020C5F88C000020C5F89000A8
:103E00000020C5F8C4000020C5F8C8000020C5F88F
:103E1000C0000020C5F8B0000020C5F8B4000020A4
:103E2000C5F8B800E96B491E280002F005FD002C1A
:103E300013D00D48006818F5CC7188420DD000945D
:103E400018F59E732A00094915F1FC0001F048FAA3
:103E500005480068D0F8840004E018F59E7000F072
:103E6000A9F93720BDE8FE8FAC5E0124F95800089F
:103E7000F0B585B004000D0016001F00002C01D124
:103E80000E2015E020680B49884201D00E200FE07B
:103E90000E9804900D9803900C9802900B98019046
:103EA0000A9800903B0032002900200002F010FD2B
:103EB00005B0F0BD44524854EFF3108172B6034888
:103EC00000680A0082F31088704700BFAC5E0124CE
:103ED00070B504000E001500002C01D10E201BE06F
:103EE00020680E49884201D00E2015E0002D01D136
:103EF000032011E0202E01D30F200DE008480068B8
:103F0000EFF305810843002801D0132004E02A00C4
:103F10003100200002F018FD70BD00BF445248542B
:103F200088050024F8B50400EFF3108672B6214826
:103F30000568002D04D1310081F31088132038E08A
:103F40001D480068EFF305810843002804D03100C4
:103F500081F3108813202CE01848854204D13100E9
:103F600081F31088132024E0002C04D1310081F368
:103F7000108800201DE012480068002804D031009D
:103F800081F31088132014E0042028630120A86323
:103F90000020C5F88400EC6409480068401C08490A
:103FA0000860370087F31088280000F027FFD5F855
:103FB0008400F2BDAC5E01248805002488550124EC
:103FC000C45E012462B38B0708D0521E11F8013B76
:103FD00000F8013B00F024808B07F6D1830740F006
:103FE000208000BF103A07D330B4B1E83810103A3F
:103FF000A0E83810F9D230BC530724BFB1E808104C
:10400000A0E8081044BF51F8043B40F8043BD20735
:1040100024BF31F8022B20F8022B44BF0B78037029
:104020007047121F17D35B0009D151F8043B20F8E9
:10403000023B1B0C121F20F8023BF6D20BE051F89A
:10404000043B00F8013B1B0A20F8023B1B0C121F2B
:1040500000F8013BF3D238BF121D521E24BF11F8E5
:10406000013B00F8013BF8D8704700002DE9F84FFC
:1040700007000C00EFF3108B72B64B480668B86867
:10408000002827D10120B860FE60002E1DD03869BD
:10409000012803D1F06A78612020B862D6F8A40024
:1040A0000500002D08D0286B00902F630098C76290
:1040B00000983863FD6203E0C6F8A470FF623F63B6
:1040C000D6F8A000401CC6F8A000594681F310881D
:1040D000002067E0F868B04207D1B868401CB860BB
:1040E000594681F3108800205CE0002C56D02F4800
:1040F0000068002804D0594681F310881D2051E043
:10410000F86880462A48B066F766D6F8AC00401CCE
:10411000C6F8AC00F869002803D1BE61366776673F
:104120000CE0B8698146C6F87090D9F874008246F0
:10413000C6F874A0CAF87060C9F87460F869401CC9
:10414000F8610D2030630120B063F4641748006803
:10415000401C16490860584680F3108839690129C7
:1041600016D1F06AB96A884201D2F06AB862F06A80
:10417000D8F89C10884202D2F06AC8F89C00F06A15
:10418000D8F82C10884203D2F16A404602F058FC5D
:10419000300000F033FED6F8840003E0594681F386
:1041A00010881D20BDE8F28FAC5E0124C45E01249E
:1041B000B57002082DE9F84F88B006005FF0200ABC
:1041C000EFF3108B72B6B068002800F04381F068FE
:1041D0000500A54800680590F0680599884208D058
:1041E000A2480068002804D1584680F310881E2198
:1041F0008A46BAF1200F40F03281B068401EB060AC
:10420000B068002805D0584680F3108800218A46FF
:1042100025E1002D05D1584680F3108800218A46FB
:104220001DE1D5F8A000401EC5F8A000D5F8A000FB
:10423000002803D10020C5F8A4000DE0F06A0400B6
:10424000306B8046C4F83080C8F82C40D5F8A40004
:10425000B04201D1C5F8A440B069002809D1306945
:10426000002806D10020F060584680F31088002115
:104270008A46BAF1200F40F0F28000200190D5F874
:1042800094000700306901282CD178480068401C50
:1042900076490860584680F3108820218946D5F871
:1042A000A4100C00002C0FD02069012804D1A06AB2
:1042B000484501D2A06A8146E46AD5F8A400844248
:1042C000F0D100200400EDE7EFF3108072B68346D2
:1042D00066480068401E65490860C5F89C90B9456D
:1042E00000D24F46F069022818D33069012815D151
:1042F0005E480068401C5D490860CDF81CB0079816
:1043000080F31088300002F011FCEFF3108072B6D9
:10431000834656480068401E54490860B06900282A
:1043200026D152480068401C50490860584680F326
:1043300010882021B162F168C96AB94203D03900FE
:10434000F06802F07DFBEFF3108072B683464748B9
:104350000068401E454908600020F060CDF81CB0A0
:10436000079880F3108801F0A5FE0020824676E0D1
:10437000B06905003069012805D1F0680190E86A4C
:1043800070612020B062D5F8A00004900498002845
:1043900004D1C5F8A460F66236630AE0D5F8A4003B
:1043A0000400206B80462663C8F82C60C6F8308075
:1043B000F4620498401CC5F8A0000120B060F560CC
:1043C000F069401EF061F06906900698002802D15D
:1043D0000020B0610BE0286F00900098B061686F1A
:1043E0000390039800994867009803990867002094
:1043F000A8660020C5F884001C480068401C1B49C2
:104400000860584680F31088316901291CD1F06991
:10441000002811D0300002F089FBEFF3108072B653
:104420008346B06902900298002802D00298C06AC0
:10443000B062584680F310880198C06AB84203D031
:104440003900019802F0FCFA280000F011F8002071
:10445000824604E0584680F310881E218A46504662
:1044600009B0BDE8F08F00BFAC5E0124C45E01243A
:104470002DE9F84F0700EFF3108B72B6786E002825
:1044800004D017F14C0002F0C9FB01E00020F864F1
:1044900048480068401E47490860B86B002857D15B
:1044A000386B002866D0786B00284CD10020386328
:1044B000F86A8046404850F828000400002C39D1A2
:1044C0003D4840F828703F627F62012010FA08F0F2
:1044D00081463A48006859EA00003849086038487F
:1044E0000068804546D23648C0F8008035480068EC
:1044F0000500002D02D1334807603BE0E86B8045A2
:1045000038D230480760594681F31088294800683E
:1045100000280ED15FF080512B4B1960EFF305811D
:10452000002906D1EFF310810A0062B6110081F371
:1045300010883CE0606A8246CAF820706762C7F85B
:1045400024A03C6216E0002078630320386311E069
:10455000386B01280ED0386B02280BD0786B0028FE
:1045600004D10020B8630020386303E000207863A2
:104570000320386315480168584680F31088114AB3
:104580001268914213D00B4800680600002E0ED12D
:104590005FF080500C4B1860EFF30580002806D1C7
:1045A000EFF31080020062B6100080F31088BDE8BF
:1045B000F18F00BFC45E012454580124BC5E012465
:1045C000C05E0124B05E012404ED00E0AC5E012475
:1045D000F8B505000E0017005FF0FF310948FFF73E
:1045E00045FD3B0017223100280002F033FB040098
:1045F000002C02D0280002F069FC0248FFF7DAFD27
:104600002000F2BD145C01242DE9F64F97B08046DE
:104610008946002016900020129000201190CDF8BD
:10462000149000200E9000208DF8180000200790B4
:1046300001201090D9F82400002801D1122065E350
:10464000EFF3108072B60C90D8F8E000002804D187
:104650000C9981F31088242058E3D8F838000328F7
:1046600003D0D8F83800042804D1189A0521404610
:1046700002F0C6FCD8F83800052808D0D8F8380071
:10468000062804D00C9981F3108838203EE3D8F82E
:10469000A0B00C9880F31088D8F8141004290CD11D
:1046A000D8F828001430129018F118001190D8F89A
:1046B0002800C9F8300038200E90D8F82000149057
:1046C000D9F800000D905FF0FF311BF59E70FFF7E9
:1046D000CDFCD8F85800D8F85410884215D2D8F834
:1046E0005810D8F86C00012803D0D8F86C000228C4
:1046F0000DD1D8F8200011EB4001D8F854008842C1
:1047000005D2D8F85400010001E0D8F85410D8F8C8
:104710005C00884204D2D8F85C00091A089101E0D4
:104720000020089014980899884201D214980890A3
:10473000D9F824000A900898002800F06482D8F87C
:10474000C000D8F8BC10884280F05D820898D9F883
:104750002410884203D201208DF8190043E099F813
:10476000080010F0030F03D001208DF819003AE083
:10477000D9F8040000280FD0D9F824100E98411859
:104780000D98806A814207D20D988068002803D076
:1047900001208DF8190026E0D9F80800D9F80C108E
:1047A00088421DD1D9F804000400002C05D0A0686F
:1047B000E168884201D16468F7E7002C04D15FF01A
:1047C000FF30FFF7AFFBFAE7207A10F0030F03D0BA
:1047D00001208DF8190006E000208DF8190002E094
:1047E00000208DF819009DF81900002800F0928033
:1047F0000898D9F82410884202D20898060002E0EE
:10480000D9F8240006004C46D9F8080007001BF52B
:104810009E70FFF7CFFC189B0E9A05A90D98FEF726
:1048200081F80990099800280CD09DF818000128FB
:1048300006D107AA0799DFF8DC04006802F0FAFB4A
:10484000099863E25FF0FF311BF59E70FFF70EFCE5
:10485000002E5AD0E068C01B0500002D1CD16468F2
:10486000002C13D19DF81800012806D107AA07993A
:10487000DFF8A004006802F0DDFB0598FDF73AFFC1
:104880001BF59E70FFF796FC12203FE2A068070020
:10489000E068C01B0500E0E7B54201D20B9500E0DF
:1048A0000B961BF59E70FFF785FC189800900D9BEA
:1048B0000B9A39000598FDF735FD09905FF0FF313F
:1048C0001BF59E70FFF7D2FB0998002818D00598B9
:1048D000406A002813D19DF81800012806D107AAC4
:1048E0000799DFF83004006802F0A4FB1BF59E7006
:1048F000FFF760FC0598FDF7FDFE099806E204E06D
:104900000B98361A0B980744A2E7D9F8300005999E
:10491000086301E0CDF81490D8F81400059981F8E7
:104920002C00059880681438059988600598406ABD
:10493000143005994862059880688246D8F80C00C2
:10494000D8F81C1051EA0041CAF80010D8F840000D
:10495000CAF80800D8F8740013901399DFF8B80368
:104960000143CAF80C100020CAF81000D8F8400023
:10497000C8F84400D8F87400C8F87800DFF89C0341
:104980000068C8F84800DAF8000000BACAF8000069
:10499000DAF8080000BACAF80800DAF80C0000BA21
:1049A000CAF80C00DAF8100000BACAF810001BF5BB
:1049B0009E70FFF7FFFBD8F83C00CAF80400DAF855
:1049C00004001590DAF8040000BACAF80400D8F818
:1049D000280090F84000400701D500201090109862
:1049E00000280CD011980090129B0598426A06216D
:1049F000059802F06FFBC04380B2169005E0059861
:104A0000806B50F00400059988635FF0FF311BF55F
:104A10009E70FFF72BFB1598D8F83C1088420AD0FF
:104A20001BF59E70FFF7C6FB0598484502D0059818
:104A3000FDF760FE47E6D8F83800052819D0D8F809
:104A40003800062815D09DF81800012805D107AABE
:104A50000799B048006802F0EDFA1BF59E70FFF769
:104A6000A9FB0598484502D00598FDF743FE38207C
:104A70004CE1EFF3108072B60C90D8F83C1005981A
:104A8000406A41181439C8F83C100C9981F3108819
:104A9000002088F89C00DAF8100000BACAF810006C
:104AA00016980004CAF81000DAF8100000BACAF824
:104AB00010000A9A0598406A121A14320A92D8F81D
:104AC000C400002807D00598D8F8C81008620598D7
:104AD000C8F8C8000FE00598C8F8C4000598C8F8E1
:104AE000C800D8F8D000C8F8CC000020C8F8D4001E
:104AF0000020C8F85C005FF0EE3005990862D8F835
:104B0000C000401CC8F8C000D8F85C100598406A86
:104B100041181439C8F85C10DBF8A800401CCBF829
:104B2000A800DBF8AC100598406A41181439CBF89E
:104B3000AC10D8F87C00401CC8F87C00D8F8801075
:104B40000598406A41181439C8F88010D8F8140044
:104B5000042813D1D8F82C000390D8F8AC000290A8
:104B60005FF4C0200190D8F8A8000090D8F8A430D5
:104B7000D8F818200599584602F043FB0A980028F7
:104B800015D10598484502D04846FDF7B3FD9DF87C
:104B90001800012805D107AA07995E48006802F0AD
:104BA00049FA1BF59E70FFF705FB0020AEE04C466E
:104BB000D9F824100A98091A0E00E168A068091AA9
:104BC000B14213D2D9F82410E068091AA06841183C
:104BD000C9F82410E068361AA0688619E0688008D1
:104BE0008000E060E068A0606468E6E7D9F824002F
:104BF000801BC9F82400A0683044A0601BF59E709B
:104C0000FFF7D8FA5FE5189800285BD041480068A4
:104C10001BF5CC71884255D03E480068C0F87C90A6
:104C2000D8F8F800401CC8F8F80098F89C00002854
:104C30000ED1012088F89C00D9F80800007888F887
:104C40009D00D8F83C00C8F898000020C8F89400EF
:104C50009DF81800002819D100200490002003902E
:104C600000200290002001900FA800900023002255
:104C700000211BF5CC7001F02BFE07AA0F992548E7
:104C8000006802F0D7F901208DF8180018980090FC
:104C90001BF59E734246224918F1F40000F020FBF8
:104CA0001C480068D0F8840000283FF40CAD07AA27
:104CB00007991848006802F0BDF916480068D0F856
:104CC000840023E098F89C0000280ED1012088F889
:104CD0009C00D9F80800007888F89D00D8F83C00BE
:104CE000C8F898000020C8F89400D8F8C000D8F898
:104CF000BC10884205D21BF59E70FFF75BFA392085
:104D000004E01BF59E70FFF755FA492019B0BDE885
:104D1000F08F00BFAC5E0124000018505C5E0124DF
:104D2000B95A00082DE9F34F81B0050016001F00A5
:104D300068684069042802D15FF0380801E05FF03C
:104D40004C083B00424631000298FDF7EBFD0400A1
:104D5000002C01D020004FE0306841693068806845
:104D6000091A072905D23068FDF7C4FC40F2351056
:104D700042E030688068401D3168886095F84100E5
:104D8000002831D06946280002F089FA0400002C7E
:104D900001D0200030E03068416930688068091A2D
:104DA000BDF80000801C814207D23068FDF7A2FCEC
:104DB0000020306040F235101EE0BDF800000028F1
:104DC00012D0BDF800905FF0000A3068D0F808B04B
:104DD000524649465846FDF785FB30688068BDF865
:104DE0000010084431688860306880683168C860A5
:104DF0000020316848620020BDE8FE8F2DE9FE4F9B
:104E000005005848D0F80090EFF3108A72B64D456F
:104E10000DD1E86C0400002C06D014F1010F03D072
:104E200015F14C0002F064FAE8694F4908604F48F8
:104E30000068401E4D490860A86B012874D100200D
:104E4000A863E86A0600286A0700AF420ED0686AC5
:104E50008046C7F82480C8F82070454850F82600DE
:104E6000A8423FD1424840F826703BE0002040492C
:104E700041F826000122B2403E48006890433D4977
:104E80000860002002903B480068009000980028CD
:104E90001ED120203849086000203849086051465A
:104EA00081F3108831480068002810D15FF08051EC
:104EB000DFF8CCC0CCF80010EFF30581002906D153
:104EC000EFF310810B0062B6190081F3108847E000
:104ED000009890FAA0F0B0FA80FB02981BEB00005B
:104EE000254908602548006885421DD1204822498F
:104EF000096850F8210021490860514681F3108863
:104F00001A48006800280ED15FF080511C4B1960D0
:104F1000EFF30581002906D1EFF310810A0062B694
:104F2000110081F310881BE0504680F3108813496C
:104F30000968894514D00D4800680190019800283F
:104F40000ED15FF080500E4A1060EFF3058000280C
:104F500006D1EFF31080010062B6080080F31088DC
:104F6000BDE8F78FAC5E0124005F0124C45E01241C
:104F700054580124BC5E0124C05E0124B05E0124AB
:104F800004ED00E02DE9F74F8CB00700EFF3108A35
:104F900072B60E9880071AD500200890786900280C
:104FA00004D03869002801D1012008900898012810
:104FB00005D1396A0D9871EA0001396203E0B968D8
:104FC0000D980140B960504680F3108822E1B9681D
:104FD0000D980143B960386A002803D0396A0D98EA
:104FE0008143396200200190786905003869002802
:104FF00000F00381012D4AD138690600B868834664
:10500000B06F8146D6F880000090009810F0020042
:1050100003900398022807D119EA0B0004004C45BD
:1050200005D00020040002E019EA0B000400002C67
:1050300000F0E88001200190F06F04900498C0F81F
:1050400000B0009810F0010002900298012803D1EE
:10505000B86830EA0900B860002038610020786143
:105060000020B0660020C6F884006C480068401C30
:105070006A490860CDF82CA00B9880F310883000A6
:10508000FFF7F6F9EFF3108072B68246BAE038699E
:10509000804641460020386100200690002005909F
:1050A000B86883465D480068401C5C4A1060524600
:1050B00082F31088EFF3108072B68246F8680028F9
:1050C00007D00020F860414678690500B86850EACA
:1050D0000B0B086F0790886F8146D1F88000009015
:1050E000009810F0020003900398022807D119EAF3
:1050F0000B0004004C4505D00020040002E019EA32
:105100000B000400086B072801D001200400002CCC
:105110003DD001200190086B072814D1C86F04907E
:105120000498C0F800B0009810F0010002900298B6
:10513000012803D1B86830EA0900B8600020886609
:105140000020C1F88400086F814202D1002080460F
:105150000DE0086F0A90486F099009980A9A506705
:105160000A98099A1067884501D1086F80467869C6
:10517000401E78610698002804D106910591002010
:10518000086704E005980167002008670591079803
:1051900001006D1E002D8AD1C7F81080386A0028E2
:1051A00005D0BA68386A8243BA6000203862504637
:1051B00080F31088069E002E15D0306F0790EFF315
:1051C000108072B6824615480068401C134908607A
:1051D000CDF82CA00B9880F310883000FFF748F929
:1051E00007980600E7E7EFF3108072B682460B4897
:1051F0000068401E0949086004E07869002801D071
:105200000120F860504680F310880199012901D1EE
:1052100000F050FF00200FB0BDE8F08FC45E012405
:105220002DE9F04106000F0090460025706B012823
:1052300005D1B6F806060B2801D101200500706BD8
:10524000022805D1B6F804060B2801D1012005007B
:1052500042463900300000F001F90400002C18D15A
:10526000B6F80006002814D00020A6F80006414633
:105270003000FDF7A9FD0400002C01D0200016E04D
:10528000002D13D142463900300000F0E7F8040049
:105290000CE0B4F5A07F09D1B4F5A07F06D1424659
:1052A0003900300000F0DAF80400F5E72000BDE82E
:1052B000F08100003EB504000D00002002900020A7
:1052C000019000200090236C2A005FF480112000E0
:1052D00002F04AF801480068A06437BD5C5E012412
:1052E0002DE9F84F04000D0016001F00DDF828809E
:1052F000EFF3108972B61B48D0F800A02068002890
:105300000ED02068CAF870002068406FCAF8740098
:105310002068406FC0F870A02068C0F874A005E055
:10532000C4F800A0CAF870A0CAF874A0CAF86850FF
:10533000CAF86C600C20CAF830000120CAF83800A6
:1053400009480068401C08490860CAF84C80CB46F0
:105350008BF310883800FEF72DFF5046FFF74EFD07
:10536000BDE8F18FAC5E0124C45E01242DE9FC414F
:1053700007008846150043245FF0FF313648FEF7EA
:1053800075FED8F8A000D0F838013861C7F804805D
:105390000020B8600020F860002087F8410000205D
:1053A00087F840000020A7F8CA050020C7F8680663
:1053B0000020C7F86C06D8F80800002802D00120A9
:1053C000786301E002207863786B012825D12B00F7
:1053D0006A463969380002F0B5F80600002E04D09C
:1053E0001D48FEF7E7FE300033E00099380002F078
:1053F000DFF80400002C06D12B00012200993800B0
:1054000002F004FA0400002C07D01348FEF7D2FE85
:105410000098FDF76FF920001BE00F48FEF7CAFE69
:1054200029003800FDF7D0FC0600552E03D1002DD1
:1054300001D155200DE0002E0AD03400380001F0D3
:1054400045FD0100002901D0080002E0200000E035
:105450003000BDE8F68100BF145C01242DE9F84F4F
:1054600088B0804689469246002000900020019036
:105470005FF0000B5FF0FF317948FEF7F7FDD8F8D9
:10548000040007905524D8F80800002806D0534699
:105490006A460021404602F015FA0400552C19D145
:1054A0006F48FEF787FE524606A90798FDF7A8FB4E
:1054B0000600002E01D03000CEE05FF0FF316848DA
:1054C000FEF7D4FD53466A460699404602F0FAF9C3
:1054D0000400E3E7002C02D0B4F5A07F75D1D8F822
:1054E0000800416A0098091AD8F808004162D8F803
:1054F0000800050000200700002D14D0E968A86806
:10550000091A039100980399884206D300990398D9
:10551000091A00912F006D68EEE7A8680099084409
:10552000A86000200090002D07D1D8F80800FDF7F2
:10553000E1F80020C8F8080014E0002F12D0002085
:105540007860D8F80800406A6862D8F80800806976
:10555000A861D8F808008761D8F80800FDF7CAF8F4
:10556000C8F808500098002805D03D48FEF722FEF4
:105570004FF4827070E0D8F83400012805D1B8F8F3
:1055800006060A2801D101208346D8F834000228F3
:1055900005D1B8F804060A2801D1012083465846EF
:1055A000C0B2002854D0D8F80C00002805D12C48EF
:1055B000FEF700FE4FF482704EE0D8F80C00C9F8F8
:1055C00000000020C8F80C0042E0029404AA05A9DB
:1055D000029802F03CFBD8F83400022802D10120E6
:1055E000A8F80406D8F83400012802D10120A8F850
:1055F00006060298B0F58A7F28D01948FEF7DAFD32
:10560000534601AAD8F810104046FFF78BFB040060
:105610005FF0FF311248FEF729FD002C13D1049BE7
:10562000DBB2059AD2B20199404602F0E6FB53463E
:1056300015220199404601F00DFB0400002C02D018
:105640000198FDF757F8404601F040FC029804002D
:105650000348FEF7AFFD200009B0BDE8F08F00BFA2
:10566000145C01242DE9F843070088465FF0FF3100
:105670003A48FEF7FBFCB86800280BD0B8688146B2
:10568000D9F81C00B8600020C9F81C004846FDF796
:1056900031F8F0E7F868002804D0F868FDF72AF838
:1056A0000020F8600025786B022806D1B7F80406C0
:1056B0000A2801D1012500E00025786B012806D1D8
:1056C000B7F806060A2801D1012500E00025002DC3
:1056D0003BD02248FEF76EFD43466A4639693800E2
:1056E000FFF720FB0600002E0AD03400380001F03E
:1056F000EDFB0100002901D008002CE020002AE089
:105700005FF0FF311548FEF7B1FC0123002200993C
:10571000380002F072FB434615220099380001F070
:1057200099FA0400002C10D00098FCF7E3FF0B4816
:10573000FEF740FD2600380001F0C8FB01000029FB
:1057400001D0080007E0300005E00448FEF732FD14
:10575000380001F0BBFBBDE8F28300BF145C0124FC
:1057600038B50400200001F0B1FB05005FF0FF3107
:105770001B48FEF77BFCD4F81006844203D10020BE
:105780001849086017E0D4F81006002805D0D4F8AE
:105790000C06D4F81016C1F80C06D4F81006D4F88C
:1057A0000C16C1F810060F480068A04203D1D4F8C7
:1057B00010060C4908600C480068002804D00A480C
:1057C0000068401E084908600020206004F2CC50A8
:1057D00000F04CFB0248FEF7EDFC280032BD00BF94
:1057E000145C0124345E0124385E01243EB50400BB
:1057F0000D00002002900020019000200090236CFA
:105800002A005FF48811200001F0AEFD37BD3EB5DF
:1058100004000D00E868C0020DD5002002900020B1
:105820000190002000900023AA685FF480212000EE
:1058300001F09AFD0CE00020029000200190002071
:1058400000906B6800225FF4A011200001F08CFD35
:10585000D4F8A000D0F8E000401CD4F8A010C1F8A3
:10586000E00037BD00214161002181610021C1615B
:10587000002180F89C100021C0F8CC100021C166E6
:10588000002180F89E108168002902D001218163E7
:1058900001E00221816370472DE9F0410400D4F852
:1058A000C4700020C4F8C4000020C4F8C800D4F8B4
:1058B000C00000281DD0EFF3108072B60500386AD2
:1058C00006005FF0AA303862F869B0F1DD3F06D11A
:1058D000A84688F310883800FCF70CFF02E0280087
:1058E00080F310883700D4F8C000401EC4F8C00010
:1058F000DDE7BDE8F08100002DE9F84305000E006A
:10590000EFF3108772B6EC6E002C03D020682949A3
:10591000884203D0380080F3108849E0A86E002840
:1059200003D1380080F3108842E0D4F8A0802248E8
:105930000068EFF305810843002804D11F48006880
:105940001F4988420CD11F48A866B94689F31088C0
:1059500000224FF4805118F51270FFF713FB27E077
:105960000020A8660020C4F8FC000020C4F8CC0089
:10597000A068002802D00120A06304E00220A063F8
:10598000206C401E2064286B0C280ED13820C5F8EE
:1059900084000D480068401C0B490860B94689F333
:1059A00010882800FEF764FD02E0380080F31088BC
:1059B000BDE8F1832050435488050024AC5E0124E7
:1059C000885501247B320008C45E01242DE9F84388
:1059D00005000E00EFF3108772B6EC6E002C03D0BA
:1059E00020682F49884203D0380080F3108854E0A3
:1059F000A86E002803D1380080F310884DE02948B4
:105A00000068EFF305810843002804D126480068A8
:105A1000264988420ED12648A866D4F8A080B94607
:105A200089F3108800224FF4805118F51270FFF7A7
:105A3000A9FA32E00020A866286F854203D1002031
:105A4000C4F8EC0008E0286FC4F8EC00686F296F18
:105A50004867286F696F0867D4F8F000401EC4F8E3
:105A6000F000286B0C2815D1A06B052803D0382036
:105A7000C5F8840002E00120C5F884000D480068E4
:105A8000401C0C490860B84688F310882800FEF7CF
:105A9000EFFC02E0380080F31088BDE8F18300BF1E
:105AA0002050435488050024AC5E0124885501240D
:105AB0007B320008C45E01242DE9F84305000E0086
:105AC000EFF3108772B6EC6E002C03D020683449D7
:105AD000884203D0380080F310885EE0A86E00286A
