:020000040800F2
:10000000F8A2022405DB010861DA010863DA0108BD
:1000100065DA010867DA010869DA01080000000002
:10002000000000000000000000000000D1DC01081A
:100030006BDA010800000000711901087D18010841
:10004000D5DC0108D9DC0108DDDC0108E1DC0108B0
:10005000E5DC0108E9DC0108EDDC0108F1DC010860
:10006000F5DC0108F9DC0108FDDC010801DD01080F
:1000700005DD010809DD01080DDD010811DD0108BC
:1000800015DD010819DD01081DDD010821DD01086C
:1000900025DD010829DD01082DDD010831DD01081C
:1000A00035DD010839DD01083DDD010841DD0108CC
:1000B00045DD010849DD01084DDD010851DD01087C
:1000C00055DD010859DD01085DDD010861DD01082C
:1000D00065DD010869DD01086DDD010871DD0108DC
:1000E00075DD010879DD0108000000007DDD0108F3
:1000F00081DD010885DD010889DD01088DDD01084C
:1001000091DD010895DD010899DD01089DDD0108FB
:10011000A1DD0108A5DD01086DDA0108A9DD0108EE
:10012000ADDD0108B1DD0108B5DD0108B9DD01086B
:10013000BDDD010873DA0108C1DD0108C5DD010874
:1001400000000000000000000000000000000000AF
:10015000C9DD0108CDDD0108D1DD0108D5DD0108CB
:10016000D9DD0108DDDD0108E1DD0108E5DD01087B
:10017000E9DD0108EDDD0108F1DD01080000000006
:10018000F5DD0108F9DD0108FDDD010801DE0108EA
:1001900005DE010809DE01080DDE010811DE010897
:1001A00015DE010819DE01081DDE010821DE010847
:1001B00025DE010829DE01082DDE010831DE0108F7
:1001C00035DE010839DE01083DDE010841DE0108A7
:1001D00045DE010849DE01084DDE010851DE010857
:1001E00055DE010859DE01085DDE010861DE010807
:1001F00065DE010869DE01086DDE010871DE0108B7
:1002000075DE010879DE01087DDE010881DE010866
:1002100085DE010889DE01088DDE010891DE010816
:1002200095DE010899DE01089DDE0108000000004E
:10023000A1DE0108A5DE010800000000A9DE01081A
:10024000ADDE0108B1DE0108B5DE0108B9DE010846
:10025000BDDE0108C1DE0108C5DE0108C9DE0108F6
:10026000CDDE0108D1DE0108D5DE0108D9DE0108A6
:10027000DDDE0108E1DE0108E5DE01080000000026
:10028000E9DE0108EDDE0108F1DE010800000000F2
:1002900000000000F5DE01087FB50D460446002190
:1002A0008DF80420D80901AAC0010A4401F1010116
:1002B00019BF43F08006567003F07F005070DB09D1
:1002C000F0D1089E4A1C0096236B01A9284601F034
:1002D0001FFB04B070BD2DE9FF470446002702A8AC
:1002E0008846076001A891460090042302AA0121D4
:1002F00020460125002601F078FB0028DFF8E0A960
:1003000002A916D10198864209D2885D761C00F0B8
:100310007F0205FB0277ED010006F3D404E0042E12
:1003200007D1DFF8C0090CE0606AB919491C88429E
:1003300001D2504605E0C8F80070761CC9F800608C
:10034000002004B0BDE8F0872DE9F84185B00546EE
:10035000686B0E4690461F4601F0C4F810B1DFF8F6
:10036000880997E0D5F88801032804D000F0EDFD56
:10037000DFF878098EE003A9284600F08CF8040025
:1003800002D000F0E2FD84E03B1D4FF0FF30822EF2
:1003900003990090F2B2284608BF5B1CFFF77CFF70
:1003A000002842D1D5F8BC220C98120A8DF80820FA
:1003B000D5F8BC328DF8093010B1D5F8BC120180E7
:1003C0004FF0FF30022200902B6B039802A901F03E
:1003D0009FFA50BB4FF0FF30039900903B464246D6
:1003E000284600F098FC04001FD1822E0FD10D98F2
:1003F000012202A900F003008DF808004FF0FF3041
:1004000000902B6B039801F083FA04000DD14FF09C
:10041000FF300021019004AA0091D5F8BC32039965
:1004200028469BB200F070F838B100F08EFD0398BA
:1004300001F050FBDFF80C0C2CE0D5F8C40218B921
:100440000499C5F8C41203E0D5F8C8120498C8612D
:100450000498C5F8C802D5F8BC02401C80B200B9A7
:100460000120C5F8BC0201F095FB00F069FDD5F84C
:10047000F8024FF0FF320399002802D000F0C7FFC6
:1004800001E000F0C0FF20B10398DFF8BC4B01F0A1
:1004900021FB204641E138B5D0F8F852046B45B154
:1004A0000A464FF0FF33214600F5AC6001F07CFBBB
:1004B0000AE0D0F8A0514FF0FF332046042D0CBFC6
:1004C00038224C2201F09EFB08B1DFF8780B32BDD8
:1004D00010B500F00DF802D1002240210EE010BD51
:1004E00010B500F005F802D10022022106E010BD8F
:1004F000D0F8243103F5C6748442704703F5A47024
:10050000BDE8104001F0E6BB70B515461E46044636
:100510000846059B226B294601F0F0FB10B1DFF87D
:10052000240B70BD296804980A69168020B1886878
:10053000017841F008010170002070BDCB69002AEC
:1005400014BFD361C0F8C432D0F8C832994208BF92
:10055000C0F8C822084601F0BDBACB69002A14BF12
:10056000D361C0F8CC32D0F8D032994208BFC0F87D
:10057000D022D0F8D412491EC0F8D4127047F8B572
:1005800006461746486A8A68042802BF1178090996
:10059000022904BF5378022B09D1D6F8840110B187
:1005A0009178C80703D4D0780628044602DBDFF828
:1005B0009C4A0FE018B100F5803480340AE000F066
:1005C00090FF706B03220121C6F88821C6F8BC1287
:1005D00001F0ECFBD6F8DC3223B1D6F8E02221465C
:1005E00030469847002C43D1D6F8841101291CBF0E
:1005F000D6F8C40200283FD000F073FFD6F8C452EA
:1006000017E000F042FED6F8F8023A4600990028BA
:1006100023D000F076FB040004D00098DFF8284ACD
:1006200001F058FA706B394601F0DCFBC0B98CB9A7
:10063000ED69C5B1A868017801F0F0013029F7D162
:10064000326B3B466946284601F058FB0028D8D05B
:10065000DFF8F04900F019FE0EE000F04EFBDAE79B
:10066000DFF88446F6E701F095FA00F04EFBF1E77B
:100670000021304600F06DFB2046F2BD2DE9F84127
:10068000804685B000201C460190D8F808300D4601
:10069000164603AA01A91878C0F341074046FFF7A0
:1006A0001AFE60BB0198022829D304A902230091F5
:1006B000039902AA404601F098F9002804BF049863
:1006C00002281CD19DF809009DF8081040EA01207D
:1006D0000199891E814212D3039A921C2A603080AC
:1006E000039A0199091A891E8018012F019118BFD8
:1006F000022F0AD1001D03900198022802D2DFF8D0
:100700005C0B0AE0891E019101E0801C03900C98AB
:1007100003992160019A0260002006B0BDE8F081D3
:100720002DE9F04107460026D7F888014FF0000870
:10073000032810D10126786B01F038FB4FF0FF3110
:10074000384600F006FB786B00F0CCFED7F8C412F8
:100750000546002914E00228EDD04CE088460EE062
:100760008868CC69007800F0F002802A1CBF00F095
:10077000F000A028F2D142463846FFF7DFFE210004
:10078000EED12EB1D7F8E41259B13846884708E0C7
:10079000D7F8DC322BB1D7F8E022DFF8C41A38469C
:1007A000984795B903E000223846FFF7D6FED7F800
:1007B000CC120029F7D100200222C7F8D4026FF032
:1007C000020107F5A47001F085FAD7F8800120B185
:1007D0000021C7F87011C7F874110020F860786123
:1007E000F8617862B876D7F8C00220B101F072F9EA
:1007F0000020C7F8C002BDE8F0812DE9F04B8CB0B5
:1008000006460DF10A0908E00398002855D1B8F111
:10081000000F02D1039801F05DF900F036FDD6F823
:10082000F80230B1002203A906F5AC6001F00AFB22
:1008300005E0002203A906F5C67001F02FFB60BB9E
:1008400000F04FFED6F8C012B9B18869002807BF82
:1008500003984860039941600398806940B3D6F8D3
:10086000C0128861D6F8C012039B4A6A586A82187F
:100870004A6203910021C6F8C012D6F8E83233B1BB
:10088000D6F8EC220399304698470128C5D0039842
:100890004FF000080028BDD015E0012805D0002247
:1008A000202106F5A47001F015FA0CB0BDE8F08B1C
:1008B000D6F8C00203998161D4E7014688680244F2
:1008C0008A6003984562039804AA05A9FFF703FD0F
:1008D000DFF80C14884233D000289BD106A80123EE
:1008E0000090039802AA002101F07FF8002891D11E
:1008F0009DF80800000902288DF8080024D003287C
:1009000028D0042818BF062800F00581092818BF40
:100910000B2800F086810D2800F0D4810E2800F00D
:10092000DB81B8F1000F7FF472AF049A0598039948
:1009300082180492486A8242BFF46CAF851AD3E0F1
:100940000398C6F8C00268E7039900223046FFF713
:1009500016FEEAE703990024079107980A94A04637
:1009600081680A780AA9C2F3410509AAFFF7B3FC16
:100970000028DAD10A980128E5D90BA90798009137
:10098000099902230DF10A0201F02FF8002804BF93
:100990000B980228D7D199F801109DF80A200A98DF
:1009A00041EA0221801E8842CDD325B309980BAAC3
:1009B000009202230DF10A0209180798891C01F020
:1009C00014F80028BFD199F801409DF80A00D6F824
:1009D000C41244EA00240AE001690A88A24201BF65
:1009E00081680A7802F0F002502A2FD0C16908917C
:1009F00008980028F0D1079A09990A98536A411873
:100A0000994207D2326B0798002307A901F076F9C3
:100A100010B18AE74FF00108D6F8D412D6F8CC020C
:100A2000491CC6F8D41218B9079AC6F8CC2203E0BC
:100A3000D6F8D0220798D061D6F8D8220798C6F801
:100A4000D0020AB130469047002D28D007A900F007
:100A5000D3FD002823D107980221220A012D8068A6
:100A600041700CBF402150218270C4700170079802
:100A700081680A1DC26004200799022D48621DD1B9
:100A80004FF0FF300022079901900092234608AAF8
:100A90003046FFF739FD18B1079801F01BF840E721
:100AA000D6F8C40218B90899C6F8C41203E0D6F8FB
:100AB000C8120898C8610898C6F8C80200F0E5FB9B
:100AC00000F0F8FD0799002802D000F01AF901E0C3
:100AD00000F013F9044600F004FD002CDCD101F015
:100AE00059F800F012F91CE7039803998068049AFA
:100AF000C9680B1A9A42FFF487AE511A4018049045
:100B00000398002342680392436000F0E3FF0398D8
:100B10000028E9D17EE6039FB9684878022841D1D0
:100B2000CA788B780024D6F8C40242EA032215461C
:100B300001E00446C069002834D0D0F810C08368B2
:100B4000BCF800E0AE451B78F3D191F800C04FEA45
:100B50001C1CBCF1040F0FD103F0F603322BE8D1BB
:100B6000D6F8F0C28346BCF1000F54D0D6F8F41288
:100B70005B46009104214CE0BCF1060F04BF03F07A
:100B8000F603502BD5D1834600F035FD002809D15E
:100B9000019841690246D068091A0429104602D218
:100BA00000F098FFC1E68068702102220170427057
:100BB000B868019AC1789068C170B96801980A79DB
:100BC00081680A71019A9068011DD1600198042220
:100BD000426200F05AFB00F06DFD0199002802D03E
:100BE00000F08FF801E000F088F8074600F079FC8B
:100BF00000F0D0FF00F089F817B1019800F06AFF0B
:100C000000F076F807D0D6F8F4125B4600912A4639
:100C100006213046E047224659463046FFF78EFC13
:100C200083E6039C09AA07A9A06805782046FFF778
:100C300052FB0028F4D108A809990090022301AAC8
:100C4000204600F0D2FE002804BF08980228E7D111
:100C50009DF805209DF804100027D6F8C4422D0900
:100C600042EA012201E02746E469002CD8D021693C
:100C7000A0680B8893420078F5D10009092D0DD1A9
:100C80000828F0D10798032825D100F031F816D0B4
:100C9000D6F8F4122346009109210EE00B2D08BF6F
:100CA0000A28E0D10798022815D100F021F806D0D3
:100CB000D6F8F412234600910B213046E0473A461D
:100CC0002146AAE7D6F87011012904D10020C6F800
:100CD0007001C6F8740128E63046FFF721FD24E6CE
:100CE00010000100040001000300010002000100E7
:100CF000D6F8F0C2BCF1000F704706F5C67001F0DF
:100D00005BB906F5AC6001F059B9D6F88011081846
:100D1000C6F8780170472DE9FC410E461C46089F35
:100D2000210A8DF8041005468DF80540904600977D
:100D30002B6B022201A9304600F0EAFD38B934B12C
:100D400000972B6B22464146304600F0E1FDBDE89E
:100D5000F68138B500F0C2FC606B0122C4F888212E
:100D600001F024F8D4F8F80240B1294604F5AC604B
:100D700001F050F904F5AC6001F072F9294604F570
:100D8000C67001F095F904F5C67001F04DFAD4F87B
:100D9000800128B104F13800BDE8324001F0DABA30
:100DA00031BD10B50446D4F8700158B100F0F2FE20
:100DB000D4F87411D4F86C21401A904202D3002266
:100DC00010210AE000F0E6FED4F87821D4F87C1176
:100DD000101A814205D30022012104F5A470FFF707
:100DE0008FBB10BD7CB505464FF0FF3401AB0094BE
:100DF0000122214605F5A47001F0CAFA686B019E34
:100E0000214600F0EFFFF00707D5D5F88811032938
:100E100003D10C21284600F002FC71061FD5D5F83D
:100E2000F80268B1002205F5C67105F5AC6001F065
:100E3000D9FA0446552C09D10120C5F8DC0B0EE087
:100E40000021284600F024FA040008D0002128469A
:100E5000FFF77FFFD5F8DC320BB100F06CF8B1077B
:100E600022D5D5F8DC0BE0B1002105F5AC6001F02E
:100E7000E3FA040009D100200021C5F8DC0B284664
:100E800000F006FA040002D10EE0552C0CD000212F
:100E90002846FFF75EFFD5F8DC322BB100F04BF8A7
:100EA00002E02846FFF7A9FCF00644BF2846FFF7FA
:100EB00037FCB10644BF2846FFF732FC300733D574
:100EC000D5F88811032904BF2846FFF729FCA86B31
:100ED00018B105F1380001F03DFAD5F8480140B1EC
:100EE00005F5A47001F0DEFA03E000222846FFF7C2
:100EF00034FBD5F8CC120029F7D10020C5F8D40274
:100F000003E000222846FFF719FBD5F8C412002998
:100F1000F7D100F01AF805F1640001F0E1FA05F5E7
:100F2000C67001F0FBFA01E000F00FF8019801072C
:100F30007FF55AAF73BDD5F8E02221462846184701
:100F4000D5F880110818C5F87801686B00F02EBF3D
:100F5000D0F824010022202100F5A47000F0BABED0
:100F6000F0B50D4687B0044616461F464FF43E6165
:100F700001F024FB34230022294604F1640001F02F
:100F800021FBD0B9109804F164016163B022002301
:100F900006920593022104910E9903902346029034
:100FA0000F980190DFF8F0280091294604F198008D
:100FB00001F064FB28B100F040F8DFF8E00807B06A
:100FC000F0BD2422294604F5A47001F0F7FB30B1EE
:100FD00000F033F804F1980001F044FCEDE70D99BE
:100FE0000C9866604FF48046A7604FF40052E062B0
:100FF000DFF8AC082163002125608023049000966F
:10100000039104F5C67102922A460193E06A002317
:1010100001F03EFC30B100F010F804F5A47001F0CE
:1010200041FAD7E7C4F8B04204F1980001F0ACFCF3
:101030000120C4F888010020C1E704F1640001F038
:101040004FBA00000600010007000100080001007F
:101050002DE9F84F88B00646706B884691461C46CD
:1010600000F040FA38B1D6F8F80208B100F007F9FC
:10107000DFF83408EEE0D6F88811032904D100F037
:1010800004F94FF00110E5E0022904D100F0FDF869
:10109000DFF81C08DEE00129D6F8F80205D008B117
:1010A00000F0EDF8DFF80C08D4E06D4F10B900F057
:1010B000ECF8A4E06420DFF8E4B76043C6F88001F0
:1010C000E4B164212C22C6F87C110123C6F86C110E
:1010D00006F138000392DFF8E027029333460191CE
:1010E00000910FF6180101F05BFC60B1D6F8F80230
:1010F00008B100F0C4F800F0C8F834E00020C6F8E9
:101100007C01C6F86C01139C1298C6F88401DFF8C4
:10111000ACA7ACB9DFF8A81706F5C67001F0A8FCBB
:1011200005000AD0D6F8F80208B100F0A8F800F0DF
:10113000A2F800F0AAF828468CE000F097F802E048
:101140000020C6F8A80200F0A0F82246002106F50B
:10115000C67001F08FFC40B1D6F8F80208B100F07B
:101160008EF800F088F8584674E000F0BAF90220D2
:1011700000F089F823464A46414606F5C67001F05C
:101180000DFD90B1372865D000F0ABF9012000F0DB
:101190007AF8D6F8F80208B100F071F806F5C670D2
:1011A00001F042F800F067F829E0049000210022E5
:1011B000002307AD0391029206F198000193009578
:1011C00001F0C0FD01F0D8FD079900F04CF8D6F809
:1011D000F80238B1224606F5C67106F5AC6001F09A
:1011E00001F920B92146304600F052F848B101F02B
:1011F000C3FD00F037F800213046FFF7AAFD38465E
:1012000028E0D6F8F802224606A9002804D006F500
:10121000AC6000F017FE03E006F5C67000F03EFE7D
:10122000054601F0A9FD00F01DF835B1002130465A
:10123000FFF78FFDDFF88C060CE00699224630465A
:10124000FFF79DF90446069800F044FC0CB900F045
:101250000DF8204609B0BDE8F08F00000F00010036
:1012600005000100059905AA01F090BD514606F55B
:10127000C67001F0ABBD06F1380001F06BB806F5A1
:10128000AC6000F0EDBEC6F88801706B00F08EBD5A
:101290002DE9FE430E460546E9680027D5F8800192
:1012A00064220029B0FBF2F81FBF8027686900287C
:1012B000C027E86950B1A87E47F00407010648BF7F
:1012C00047F02007C00000F018000743D5F884312C
:1012D000012B0AD147F0020703E000222846FFF75E
:1012E0002DF9D5F8C4120029F7D1AC680C3417F0E9
:1012F000040904D0296AA86A0C190419241D3906A6
:1013000002D5288A801C0419790602D5288B801CF6
:101310000419DFF8B4158C4228BFDFF8800570D2BD
:1013200001A92846FFF7B7F800286AD110200199D3
:101330008DF808002346009610222846FEF7ACFFE1
:1013400000283FD10199009604230FF2BC5200F00F
:1013500063F8002836D104204FEA18218DF80800E0
:1013600002A847700422817002A980F803800198C6
:1013700000962B6B00F0CCFA20BB0096AB686A6835
:1013800000F049F8E8B9B9F1000F0BD000962B6ACC
:10139000EA6900F040F8A0B90096AB6A6A6A00F00A
:1013A0003AF870B9380605D500962B8AEA6800F03D
:1013B00032F830B978060BD500962B8B6A6900F0AD
:1013C0002AF828B1019800F085FBDFF8000518E045
:1013D000D5F8F80232460199002802D000F017F83B
:1013E00001E000F010F85FEA00091CBF019800F06E
:1013F00071FB00F0CFFBD5F880110818C5F8780113
:101400004846BDE8FE8305F5C67000F0D5BD05F57C
:10141000AC6000F0D3BD019928467CE4FEB50446DB
:101420000D4616461F4604F5866304F5407204F522
:10143000AC61B84760B9089B0120C4F8F8020A996A
:10144000099A01910092324629462046FFF700FE94
:10145000FEBD2DE9FF410024002B05460E460A9FE4
:10146000DFF844842DD0012301970093134602AA8C
:10147000FFF74AF810B1DFF854042FE0686B00F072
:1014800031F818B1029800F025FB1FE0D5F8C4022E
:1014900018B90299C5F8C41203E0D5F8C812029829
:1014A000C8610298C5F8C80200F074FBFFF748FD58
:1014B000D5F8F8023A463146002809D0FFF7A7FFD1
:1014C00008E0686B00F00EF80028EDD0404605E01B
:1014D000FFF799FF08B1DFF8EC43204604B0BDE800
:1014E000F081706B4FF0FF3100F07CBC2DE9FE4FB6
:1014F0000E9F8B4691469A464FF00008022F08BF78
:10150000DFF8A00375D00646D6F88801032818BF77
:10151000DFF8BC036DD100F06EF810B1DFF8AC035A
:1015200067E00D987A0042F0300208B142F0010203
:1015300009F10203012F0C9D0F9C0094019908BF33
:101540009B1CBAF1000FD2B230461CBF002DEB1825
:10155000FEF7A2FE002838D1009401995A464B4666
:101560003046FFF7D8FB80BB012F21D1FFF7B9FF31
:1015700010B1DFF834033CE0D6F8BC128846090A03
:101580008DF80810D6F8BC128DF80910D6F8BC02F8
:10159000401C80B200B90120C6F8BC02FFF775FEFE
:1015A0000094336B0198022202A900F0B1F960B9EE
:1015B000BAF1000F18BF002D0DD00094336B0198C5
:1015C0002A46514600F0A4F928B1019800F082FAA9
:1015D000DFF8C8020DE0009401993B461FFA88F23B
:1015E0003046FFF736FF04001CBF019800F072FA86
:1015F0002046BDE8FE8F01A93046FEF74CBF022B06
:10160000E0B502D1DFF89C020EBD019300230093E8
:1016100013460A468221FFE7FEF796FE0EBDF8B597
:101620000F4606466946FEF736FF08B19B48F2BDF5
:10163000009841690246D068091A0229104603D26F
:1016400000F048FA0920F2BD8068390100220170DB
:101650004270009881688A1CC2600099022048622A
:10166000FFF713FE00F026F80099002802D0FFF7DC
:1016700048FB01E0FFF741FB0546FFF732FF044658
:101680001DB100988F4D00F025FA04B117E00C2F22
:101690000AD1D6F87001012806D000F07BFAC6F80E
:1016A00074010120C6F8700100F074FAFFF72DFBF9
:1016B0002846F2BDD6F8F8024FF0FF3270477A485C
:1016C000F2BD606B00F072BB38B500F007F8606BDC
:1016D000C4F8D85200F06AFB002032BD04460D4623
:1016E000606B4FF0FF3100F07DBB2DE9F04F0446F9
:1016F00085B0606B884692461F46DDF83C90FFF748
:10170000F1FE0E9D109E13E0D4F8D022DBF81C10E1
:10171000C4F8CC125A4504BF0021C4F8D012D4F842
:10172000D412491EC4F8D412F0B1584600F0D2F9D0
:10173000D4F8D40278B3D4F8CCB202A9009103ABA8
:1017400001AA04A95846FEF799FF0028BDF8043005
:10175000DAD19A4524BF02998945D5D2FFF7B1FF66
:101760005C4805B0BDE8F08F386000213160049915
:1017700042460097584600F038F90096029B0399BC
:101780002A46584600F031F9584600F0A3F9FFF711
:1017900098FF0020E5E7FFF794FF4F48E1E72DE9C8
:1017A000F84187B000281CBF0E9F002F0BD03C686B
:1017B0004A4DAC4207D1109D002D1CBF119C002C3E
:1017C00001D00F9E0EB9072011E0DDF850C0DDF802
:1017D0004CE0DDF84880CDF818C0CDF814E0CDF825
:1017E00010800394029501960097FFF7B9FB08B0AB
:1017F000BDE8F08100287FB514BF002907200AD07A
:101800000AB9462007E00A9C099D089E02940195AA
:101810000096FFF703FE04B070BD7FB5040008BF5B
:10182000072013D00029214818BF002A0ED0089D98
:1018300003B15DB10A9E042E08D20B980296039064
:10184000099E019620460095FFF750FE04B070BD3A
:1018500010B508B9072010BD0029144C18BF002A84
:1018600001D0032B01D3204610BDBDE81040C6E6D1
:101870007FB508B907200CE0089C002C14BF002994
:101880000A4806D00A9D099E029501960094FFF72A
:101890002CFF04B070BD0000E50D0008040001003D
:1018A000510F00080C0001000300010009000100B5
:1018B0001100010012000100A30D0008E10400085E
:1018C000D104000807000100027E810F060001001C
:1018D000020001000D0001000A0001002020504913
:1018E00008B10A0001D107207047EDE608B90720CA
:1018F0007047C0F8E4120020704700004D51545466
:101900002054696D657200004D5154540000000070
:101910002DE9F84F06468A46B069002560B10027D8
:10192000009000984169C919C76805464468009449
:10193000CF1B2000F5D102E07169F768CF1B9742F9
:101940002ED20024DDF82890934698464B4600227C
:101950006946404600F056F938B994B1A06958B1CB
:10196000009941600098A0610CE0054614B1204642
:1019700000F0B0F8284636E00098A0610099616058
:1019800000E0009C00984169C919C768CF1B5F45FA
:10199000DCD3002D5A4614BF6C6074600020A06137
:1019A000B069716A51187162002814BF00900096E6
:1019B000C2B1144604E00099AA4448680090B0619E
:1019C00000980099C0684D6951462D1AAC4238BF45
:1019D00025462A4601F014FA0098641BC168294480
:1019E000C160E8D10020BDE8F28FF8B50646344664
:1019F000606A17461D46069A814202D3B9B9116042
:101A00002BE0084601E0C01A646884B1D4F808C02D
:101A1000E368A3EB0C039842F5D21CEB000006D060
:101A2000736A591AA94234BF0D46294601E0532072
:101A3000F2BD116000E0A0687DB1E1682E46091A90
:101A40008D4288BF0E46014632463846AD1B01F036
:101A5000D7F964683744002CEDD10020F2BDF0B412
:101A60000246106895681318506803EB5004C007CD
:101A70001BD54D4419E013F8017B05F8017B491E85
:101A8000F9D190B113F8011BC6F38106032E08BFEC
:101A900013F8016B01EB062149422944801C11F81F
:101AA000016B05F8016B401EF9D1A3420ED013F86B
:101AB000016B16F0030104BF13F8011BC91C3009A8
:101AC0000F28DCD113F8010B0F30D8E7F0BC02F17E
:101AD0000C007047F8B52D4D3AE04FF0FF31016230
:101AE000D669C661D0619068401C906083F310880D
:101AF0002DE0D6620F6F4E6F7E674E6F0F6F3767A8
:101B0000176B7F1E176300228A662E68761C2E6074
:101B100083F3108800234260C361826102694362DB
:101B20008E6F036380F82C3032444FF0AA36826007
:101B3000C26000228263066280F82D2080F82E2089
:101B4000CB6F18600846C1F8842001F065F9204683
:101B5000D8B1016AB1F1AA3F0DD14468EFF3108307
:101B600072B60268D16A0029B7D00E6FB142C0D1F7
:101B70000026D662C4E7006830B10168044A914289
:101B800002D183695B1C83610720F2BDC49B0224E0
:101B90004B434150EFF3108172B60248006881F365
:101BA000108870477080022438B50468114DAC422B
:101BB00008D1446834B16569042D12BF062DA46BA9
:101BC000052C02D040F2011032BD0B4D2C68EFF312
:101BD00005852C4306D1094C2468002C1CBF084DF8
:101BE000AC4201D1112032BD01B0BDE8304001F05E
:101BF0009FB900BF20534C549C420024B09B022448
:101C000024810224F8B5846A944201D24D20F2BDA9
:101C100000250D60EFF3108572B68468F4B1C369D6
:101C2000641E8460DC69C4611E6900200024D861E0
:101C300058605862B0189C6100229860D8600420F7
:101C40001C634FF0AA349A631C6283F82C000020B6
:101C500083F82D2083F82E200B6031E00669761C76
:101C6000066163B34469184E184F641C44613468BC
:101C7000A766E066E167A267C16A49B12167C16AE8
:101C80004A6F6267C66A716F0C67C26A546702E086
:101C9000C46224676467016B0122491C01630C2044
:101CA00020630B48A2630168491C0160E36485F36B
:101CB0001088204601F080F9D4F88400F2BD01209C
:101CC00085F31088F2BD00BFB09B022499D60108AD
:101CD000C49B022410B518B10368074CA34201D07D
:101CE000062010BD022A18BF002A01D0082010BD0E
:101CF000BDE8104001F002BA4E4456442DE9FE43BF
:101D00000E46002104463160606A91461D46002857
:101D100039D0002201A94846FFF774FF002836D1C8
:101D20000199206B274608630198A26B82632169A1
:101D300002E064687CB1A1680095E26801984B46B6
:101D4000521AFFF7E5FD5FEA0008F2D00198FFF7AD
:101D5000C1FE40461BE0B8683969019A411A106912
:101D600008449060019A506A411A5162019A7B6B53
:101D7000386914691B1AE01850637B6A01988B421A
:101D800003D0FFF7A7FE122001E030600020BDE87D
:101D9000FE838268521C8260426832B10268531C22
:101DA000036011704168491E4160704718B10168B5
:101DB0000A4A914201D01C207047094B1968EFF381
:101DC0000582114308D01A68EFF305810A43B2F186
:101DD000F03F01D21320704701F06ABA4554554DC7
:101DE0009C42002438B518B10268124B9A4201D0C7
:101DF0001C2032BD104C59B12268EFF305831A4301
:101E000004D10E4A0E4D1368AB4201D1042032BDFD
:101E10002268EFF305831A4308D02368EFF30582A5
:101E20001343B3F1F03F01D2132032BDBDE834407B
:101E300001F024BB4554554D9C420024B09B022424
:101E400024810224002838B518BF002901D10720B9
:101E500032BD04680D4DAC4201D1436813B940F264
:101E6000011032BD0A4C2368EFF30584234306D1E9
:101E7000084B1B68002B1CBF074CA34201D111204B
:101E800032BDBDE8384001F07DBB00BF20534C544B
:101E90009C420024B09B0224248102242DE9FC41B1
:101EA000054614460F46D5F8A08000224FF0FF31BA
:101EB0003A6008F59E7001F0E1FAD5F8E0201AB911
:101EC00000F076F824206CE0D5F8B40050B9A86B87
:101ED000032803D3062801D0082810D900F068F899
:101EE00038205EE0C269B2F1BB3F08D1D5F8B83006
:101EF000984206BF0022C5F8B820026A1AE0002CFA
:101F00001FBF294E306808F5CC71884246D0C7679C
:101F1000D5F8F00008F59E732A462449401CC5F800
:101F2000F00005F1EC00009401F060FB3068D0F89F
:101F3000840036E0C5F8B420D5F8B020521EC5F8AC
:101F4000B0208268446AD3681B0F02EB8302A4EBC3
:101F50008303826043624FF0AA3300220362C261AE
:101F60003860D5F8B0102A6F00290FBF1146696F8D
:101F7000406A4118A86F6967091AB1EB520F09D37B
:101F8000A86B05281CBF0728082803D1E96B284641
:101F900001F05CFB00F00CF8002002E000F008F813
:101FA0000120BDE8F6810000B09B0224493E0008F4
:101FB00008F59E7001F07CB901F05ABB002838B5D5
:101FC00018BF002901D1072032BD43681BB1046846
:101FD0000C4DAC4202D040F2011032BD0A4B1B68DE
:101FE000EFF30584234306D1084C2368002B1CBF64
:101FF000074DAB4201D1112032BDBDE8384001F0A0
:10200000BBBD00BF20534C549C420024B09B022413
:102010002481022410B508B9072010BD02680C4BBA
:102020009A4202D040F2011010BD0A4C2268EFF330
:1020300005831A4306D1084A1268002A1CBF074BC1
:102040009A4201D1112010BDBDE8104001F0B0BD91
:1020500020534C549C420024B09B0224248102242F
:10206000C8B10F490A681146A9B1814204D0D1F81C
:1020700010169142F8D10EE00A490968EFF3058283
:10208000114306D1084A116800291CBF074B994229
:1020900003D1112070470720704701F0E5BD00BF54
:1020A000F09D02249C420024B09B0224248102243F
:1020B0002DE9F04186B00546D5F8A0800C464FF0DA
:1020C000FF31002708F59E7001F0D8F9D8F8D0202C
:1020D000521CC8F8D020A96B05292FD0032918BF9E
:1020E000042907D0062929D008F59E7001F0E0F8F0
:1020F000382089E0A86868B1042909D1E96BD5F8CE
:10210000D000C5F8CC002846C5F8D47000F086F899
:1021100001200FE0042909D1A86A38B1D5F8D01000
:10212000C5F8D470C5F8CC1000F076F8296C022000
:10213000491E2964A863C5F8CC7022E07CB94FF42D
:10214000801128460491EA6B0392296C029101A93F
:1021500001F0C4FD2846372701F0E1FD11E0062912
:10216000D5F8C40002D0072140B901E00B2128B9FD
:10217000D5F8D000C5F8D470C5F8CC00A96300F03C
:102180004BF8A86B012818BF02281FBF204E3068EB
:1021900008F5CC71884217D0009408F59E732A4642
:1021A0001C4905F5807001F021FA4FF0FF3108F568
:1021B0009E7001F063F9A86B0A281CBF284601F045
:1021C000AEFD3168D1F88470D5F8C40010B128464E
:1021D00001F0B8FDD5F8FC0030B1002101F0DAFDC6
:1021E00002E0002101F030FED5F8EC000028F8D123
:1021F000D5F8F40018B1002101F08AFEF8E708F5DF
:102200009E7001F055F8384606B0BDE8F081000038
:10221000B09B02244DAC0108E96B2846491CE963D8
:10222000491E01F0E1BE2E00F8B505464FF0FF3122
:10223000D5F8A04004F59E7001F020F9AA6B0A2A97
:1022400004BF284601F06BFDA86B012803D000F005
:102250007CF83520F2BDD5F8E00050B9D5F8E8009B
:1022600018B1002101F0CCFE6BE000F06EF82420E4
:10227000F2BDEF6807EB172707F01F07EFF3108693
:1022800072B6D5F8B00010B1284601F01DFFD5F8A0
:10229000E00004EB8701A84208BF00200FD0D5F86A
:1022A000E420C0F8E420D5F8E430D5F8E000C3F825
:1022B000E000D1F80824AA4203D1D5F8E000C1F823
:1022C00008040022C5F8E02086F31088D5F8040140
:1022D000B8B3C26E0020C2F8E800D5F80431C2F8E5
:1022E0000431D5F808010023401EC2F80801C5F8E2
:1022F0000431C5F80831EFF3108372B6D1F8080441
:1023000090B1C2F8E000D1F80804D0F8E450C2F867
:10231000E450D1F80864D6F8E400C0F8E020D1F821
:102320000814C1F8E42005E0C2F8E020C2F8E42077
:10233000C1F8082483F31088002102F5827001F0AF
:10234000DFFE00F002F80020F2BD04F59E7000F000
:10235000AFBF704718B10168094A914201D01520FA
:102360007047084B1968EFF30582114304D1064901
:10237000064B0A689A4201D11320704701F0E8BE6B
:102380004D4954419C420024B09B022424810224E4
:10239000F8B518B104680F4DAC4201D00620F2BD6B
:1023A0000BB90320F2BD069C64B10B4D2D68EFF311
:1023B0000586354304D1094E094F3568BD4201D128
:1023C0000420F2BD032A01D90820F2BD009401F0D7
:1023D000E5FEF2BD4E4456449C420024B09B0224CC
:1023E00024810224002838B518BF002901D1072014
:1023F00032BD03680C4CA34202D040F2011032BD42
:102400000A4D2B68EFF30584234306D1084B1B6864
:10241000002B1CBF074CA34201D1112032BDBDE8E7
:10242000384001F023BF00BF20534C549C4200248D
:10243000B09B0224248102247CB5064600200D4670
:102440000090716B432401290ED1B6F806260A2AA2
:1024500007D000F021F80400F7D0B6F806060A28E5
:1024600002D10098FFF736FB706B02280ED1B6F848
:1024700004160A2907D000F00FF80400F7D0B6F8C8
:1024800004060A2802D10098FFF724FB012C04BFA0
:10249000002D5524204676BD2A466946304601F077
:1024A00041BF704718B10168094A914201D0062026
:1024B0007047084B1968EFF30582114304D10649B0
:1024C000064B0A689A4201D11320704701F0E4BF1D
:1024D0004E4456449C420024B09B02242481022492
:1024E00018B10168094A914201D01C207047084B7D
:1024F0001968EFF30582114304D10649064B0A68B7
:102500009A4201D11320704702F010B84554554D3E
:102510009C420024B09B02242481022438B5044646
:102520004FF0FF31D4F8A05005F59E7000F0A6FFE3
:1025300022681F4B9A4203D000F03CF8272032BD9E
:10254000D4F8E010002901BFD4F8E8000028A16BFE
:10255000012903D000F02EF8422032BDEFF31080A5
:1025600072B600212160D4F80C118C4203D10022F4
:10257000C5F8882411E0D4F81031C1F81031D4F82E
:102580001021D4F80C11C2F80C11D5F88834A342EC
:1025900004BFD4F80C11C5F88814D5F88C24521E49
:1025A000C5F88C2480F3108800F004F8002032BDB8
:1025B0002050435405F59E7000F07ABE002202F0D0
:1025C00009B800002DE9F04104468846154600266A
:1025D00014B3342B20D1EFF3108172B62148026876
:1025E000521C026081F310881F49204A0F680021A5
:1025F000136801E03F6A491C994201D2BC42F9D1FB
:10260000EFF3108172B60268521E026081F31088E7
:1026100001F0EAFFBC4201D11C2620E0012D1CBFC5
:10262000002D1F261BD11248124A01689142124AFE
:10263000106808BF1326EFF30581084308D011681E
:10264000EFF305800143B1F1F03F38BF132606D305
:102650002EB92A464146204601F0E8FF064630469C
:10266000BDE8F081C49B0224449E0224489E0224BB
:10267000B09B0224248102249C4200242DE9F84FBF
:102680000025002886B089461746984644D01699FA
:10269000B02941D1119E109CEFF3108172B6414ACE
:1026A00013685B1C136081F310883F49AC46D1F876
:1026B00000B0A1194B1E01460020009317E0DBF883
:1026C0000C309C4205D3DBF810A054453CBF0024DD
:1026D0000120DDF800E09E4505D3DBF810309E4573
:1026E0003CBF00240120DBF888B00CF1010C2F4B1B
:1026F0001B689C4503D2594501D00028DFD08A468B
:10270000EFF3108072B61168491E116080F31088D3
:1027100001F06AFFDA4501D10E253FE00CB13A0025
:1027200001D103253AE0C82E38BF052536D3129FC4
:10273000202F28BF0F2531D2DDF84CC0674538BFA8
:1027400018252BD3DDF854E0BEF1010F88BF10250A
:1027500024D81748174B01689942174B186808BFCF
:102760001325EFF30581084308D01968EFF30580BE
:102770000143B1F1F03F38BF13250FD375B9149859
:10278000CDF814E004904346CDF80CC049460297BA
:1027900050460196009401F079FF0546284607B09F
:1027A000BDE8F08FC49B0224B89B0224BC9B02248A
:1027B000B09B0224248102249C420024F8B50446E4
:1027C0000E46002514B3242A20D1EFF3108172B6EF
:1027D0001E480268521C026081F310881C491D4A81
:1027E0000F680021136801E0BF69491C994201D2BA
:1027F000BC42F9D1EFF3108172B60268521E02603A
:1028000081F3108801F0F0FEBC4201D106251AE0E8
:102810001148124A01689142114A106808BF1325F5
:10282000EFF30581084308D01168EFF305800143F9
:10283000B1F1F03F38BF132505D325B93146204605
:1028400001F0B6FF05462846F2BD00BFC49B022436
:102850003C9E0224409E0224B09B02242481022438
:102860009C42002408490968EFF30582114301D016
:102870001320704718B10168044A914201D00E201C
:10288000704701F0BBBF00BF9C4200244452485433
:102890002DE9F44F80460D4699460A9F0B9C0C9EED
:1028A000DDF834A0DDF838B04FF496712846FFF714
:1028B00085FE0122C5F8A080AA600098686000210A
:1028C000E96640F2B450296107F48047C5F8E81082
:1028D0002A4928622A4BC5F8A490C5F8AC70C5F8FF
:1028E000A8400A68AA641868C5F8D0000A21002226
:1028F0001420C5F8D8104FF0FF31C5F8DC20C5F81A
:102900002801C5F8BC0001202E676E67A866A86381
:1029100008F59E70EA656A65AA65C5F814A1C5F850
:1029200018B1C5F81C2100F0A9FDEFF3108172B6B3
:1029300014482860D8F8880450B1D0F81021C0F8A5
:102940001051C2F80C51C5F81021D8F8880404E0E1
:10295000C8F888542846C5F81051D8F88C24521C61
:10296000C8F88C24C5F80C0181F3108808F59E7016
:1029700000F09EFC0020BDE8F28F00BFD49E022430
:10298000D89E02242050435418B10168034A914252
:1029900001D00E20704701F05DBF00BF4452485483
:1029A0002DE9FE430E4691469846002520B30D9929
:1029B0002C2921D1EFF3108272B627490B685B1CDA
:1029C0000B6082F31088254A0446176824480022C9
:1029D000036801E07F6A521C9A4201D2BC42F9D1DD
:1029E000EFF3108072B60A68521E0A6080F31088F6
:1029F00001F0FAFDBC4201D115252AE00A9808B978
:102A0000162526E00C9901291CBF0029172520D185
:102A1000144A154F1368154A93423A6808BF1325A4
:102A2000EFF305831A4308D03B68EFF305821343A5
:102A3000B3F1F03F38BF13250BD355B902910B9971
:102A40000191434600904A463146204601F036FF48
:102A500005462846BDE8FE83C49B022488800224E4
:102A60008C800224B09B02249C42002424810224F6
:102A70004B207047F3B581B00546D5F8A0601446E9
:102A80004FF0FF3106F59E7000F0F8FCD5F8E0201D
:102A9000002A04BFD5F8E800002803D000F07AF837
:102AA0002220FEBD0298A0B901F044FF411300EBC3
:102AB00091426FF30D02801A00F5404001460290EA
:102AC00002AA304601F084FF18B100F063F84520F7
:102AD000FEBD0298E860029800EB102000F01F0095
:102AE00006EB8001D1F8080468B10246C368029F72
:102AF000BB4204D0D0F8E0009042F7D100E010B122
:102B0000C268BA4224D0EFF3108272B6A0B1D1F8F5
:102B10000804C5F8E000D1F80834D3F8E440C5F85B
:102B2000E440D1F80804D0F8E430C3F8E050D1F81C
:102B30000814C1F8E45005E0C5F8E050C5F8E450C9
:102B4000C1F8085482F3108800F024F80020FEBD7C
:102B5000BCB1D0F808110D4F06F59E73491CC0F8A2
:102B600008113A68C5F8E8202A46C5F8E400084983
:102B7000009400F5827000F039FD3868D0F88400C8
:102B8000FEBD00F007F82320FEBD0000B09B02242C
:102B90000140000806F59E7000F08ABB2DE9FE4357
:102BA0000E4605461C2700200190316891461C46C0
:102BB000D5F8A080042909D1716805F12C0301AA78
:102BC000404601F039FF08B12120B1E04FF0FF315C
:102BD00008F59E7000F052FCD5F8E00018B900F03E
:102BE000ADF82420A4E0A86B012818BF0A2803D060
:102BF00000F0A4F835209BE0D8F8CC00D8F8C41039
:102C0000401CC8F8CC000320491CC8F8C410A863B5
:102C100032686A613168042902D170683027A8617E
:102C2000C5F81C90019820B94FF0FF3001F0BEFFAD
:102C3000FAE7416AB94218D2D8F8CC20D8F8C400D3
:102C4000521E0121C8F8CC20401EC8F8C40005F16E
:102C50001400A9630021C0E90011E96108F59E7024
:102C6000E96200F025FB4C2062E0A862E86B40B905
:102C700001F060FE0004E86301F05CFEE96B0143D3
:102C800005E001F057FEE96B411801F58031E96379
:102C9000286F296F6867A9670020E96B0022A5F8F3
:102CA0005200C5F8D400D5F8B000A5F85020491C52
:102CB000D5F8D020E963C5F8CC2010B1284601F042
:102CC00003FA00212846A965E965E967C5F880107F
:102CD000C5F88410C5F88810C5F88C10C5F8901098
:102CE000C5F8C410C5F8C810C5F8C010C5F8B010B4
:102CF000C5F8B410C5F8B810E96B491E01F096FF8D
:102D0000002C1FBF0B4F386808F5CC7188420CD0DF
:102D1000009408F59E732A46074905F1FC0000F06F
:102D200065FC3868D0F8840002E000F007F837202E
:102D3000BDE8FE83B09B0224953D000808F59E7017
:102D400000F0B6BA78B585B018B10468094DAC4248
:102D500001D00E200BE00E9C0D9D04940C9E03955B
:102D60000B9C0A9D02960194009501F099FF06B014
:102D700070BD00BF44524854EFF3108172B6024850
:102D8000006881F310887047B09B022410B518B119
:102D900003680C4CA34201D00E2010BD0AB90320D9
:102DA00010BD202901D30F2010BD074B1B68EFF386
:102DB0000584234301D0132010BDBDE8104001F06D
:102DC00097BF00BF445248549C42002438B5044683
:102DD0000D46D4F8A0204FF0FF3102F59E7000F0B0
:102DE0004DFBEFF3108072B6C4F81C5180F31088CD
:102DF000D4F8A01001F59E7000F05AFA002032BD00
:102E00004AB1000011F8013B521E00F8013B1CBF03
:102E100011F8013BF8E770472DE9F0410446EFF364
:102E2000108572B6606E20B104F14C0001F0C2FF53
:102E300001E00021E164374E374A30684FF080539B
:102E4000364F401E3060A06B216B00283FD1002917
:102E50004AD0606B002843D10021DFF8C4C0216351
:102E6000E16A5CF8210060BB4CF821402D482462E7
:102E70004FF0010E6462D0F800C00EFA01FE4EEA77
:102E80000C0CC0F800C02848D0F8008041452BD277
:102E90000160386808B93C6026E0C06B814223D2EB
:102EA0003C6085F310883068002802BF1360EFF3A0
:102EB000058000282CD1EFF3108062B680F31088D3
:102EC00026E0416A0C624462616220620CE00129E2
:102ED00018BF022908D0606B10B90021A16302E07D
:102EE0000020032160632163104C206885F3108863
:102EF0003D68A8420CD03068002802BF1360EFF391
:102F00000580002804D1EFF3108062B680F31088AA
:102F1000BDE8F081C49B022404ED00E0B49B0224D0
:102F2000D49B0224D09B0224C09B0224B09B022489
:102F30007CB505460846696814464A692146042A54
:102F40000CBF38224C22FEF75DFEA0BB206840F289
:102F5000351681684269521A072A02D2FEF7BAFD75
:102F600016E0491D816095F84100F0B16946284698
:102F700001F036FFF8B92068BDF800108268436997
:102F80009B1A8D1CAB4205D2FEF7A4FD00212160E7
:102F9000304676BD080008D01046FFF70FFB2068CA
:102FA000BDF8002081680A448260206800228168A0
:102FB000C1604262002076BD2DE9F04706464748D1
:102FC0000568EFF3108472B6AE420BD1F06C0028A6
:102FD0001EBF10F1010F06F14C0001F01BFFF1695B
:102FE0003F4A11603F4B404918684FF080523F4FB5
:102FF000401E1860B06B01285BD10020DFF8F0C0E4
:10300000B063D6F82080F06ADFF8E8E0B0450CD075
:10301000D6F82490C8F82490C9F820805EF8209053
:10302000B1452ED14EF820802BE04FF000084FF034
:10303000010A4EF82080DFF8C080D8F800900AFA24
:1030400000F039EA0000C8F8000014D1202500265D
:10305000CCF800503E6084F310881868002802BF46
:103060000A60EFF30580002835D1EFF3108062B6D7
:1030700080F310882FE090FAA0F0B0FA80F0CCF83E
:1030800000003868864214D1DCF800505EF82560F4
:103090003E6084F310881868002802BF0A60EFF3CE
:1030A0000580002817D1EFF3108062B680F31088F6
:1030B00011E084F310883C68A5420CD01868002801
:1030C00002BF0A60EFF30580002804D1EFF31080FF
:1030D00062B680F31088BDE8F08700BFB09B022481
:1030E000A0800224C49B022404ED00E0B49B0224CF
:1030F000C09B0224D49B0224D09B02242DE9F84FCC
:103100000D46EFF3108372B6EC4391070DD542697B
:103110002AB1016919B9026A1443046202E08168A4
:103120000D40856083F31088BCE08268016A154316
:10313000856009B10C400462026900264169002AD9
:1031400000F0A880012927D1D2F88070946F5FEA3F
:10315000877C04EA050101D5A1421CD100291AD0BF
:10316000D16F01260D60FD0703D5876827EA0404A7
:10317000846000214D4C016141619166C2F8841068
:1031800025686D1C256083F310881046FFF744FE08
:10319000EFF3108372B680E00661444F96463A68BA
:1031A0007446B046521C3A6007460846002183F335
:1031B0001088EFF3108372B6FA682AB1BA6800205B
:1031C000F860744678691543D4F87090CDF8009093
:1031D000D4F880A0D4F878C05FEA8A7B0CEA0502B4
:1031E00002D5624518BF0022D4F830B0BBF1070FFA
:1031F00013D142B3E26F012615605FEACA7203D5AC
:10320000BA6822EA0C02BA600022A266C4F88420DE
:103210004C4504D14FF0000E0AE00126F8E7626F3A
:10322000A645C9F87420C2F8709008BFD4F870E0C1
:103230007A69521E00297A610CBF2146C8F8704095
:103240000022A0462267401E009CB0D10846396A81
:10325000C7F810E029B1BA6822EA0101B96000217B
:10326000396283F31088114D00280BE0046FEFF3EF
:10327000108172B62A68521C2A6081F31088FFF709
:10328000CBFD2000F2D1EFF3108372B62968491EFE
:10329000296002E009B10122C26083F310880EB1F7
:1032A00001F0A2F90020BDE8F28F00BFC49B022408
:1032B0002DE9F0410546EFF3108372B6A8680028A7
:1032C00000F0D3806B4CE96822686B4E914204D0C9
:1032D000326812B983F31088C9E0401EA86002D09A
:1032E00083F31088BFE011B983F31088C0E0D1F8F0
:1032F000A000401EC1F8A00008D0EA6A286B106345
:10330000C262D1F8A400A84208BF1046C1F8A400C8
:10331000AA692869002A08BF002803D1E86083F35E
:103320001088A5E000270128D1F894801ED13068CC
:10333000401C306083F31088D1F8A4302022184656
:1033400048B10469012C03D1846A944298BF224693
:10335000C06A9842F4D1EFF3108372B63068401E11
:1033600042453060C1F89C2098BF9046E969012928
:1033700010D92A69012A0DD13168491C316083F3C3
:103380001088284601F076FDEFF3108372B632689C
:10339000521E3260AC69CCB93068401C306083F397
:1033A0001088E8682021A962C26A42451CBF4146D4
:1033B00001F0AEFDEFF3108072B63168491E316046
:1033C000EF6080F3108801F00FF94CE028690128C4
:1033D00004D1EF68E06A20216861A962D4F8A000F6
:1033E00020B9C4F8A45029462A4604E0D4F8A41011
:1033F0000A6B0D63D562E962401C2A63C4F8A00021
:103400000120A860E869EC60401E02D10021A9619A
:1034100004E0216FA961626F4A6711670021A1660C
:10342000E861C4F884103268521C326083F310885B
:103430002969012914D1E86958B1284601F01AFD1B
:10344000EFF3108172B6A86908B1C06AA86281F36F
:103450001088F96A414503D04146384601F058FDCD
:103460002046FFF7D9FC002002E083F310881E20DD
:10347000BDE8F081B09B0224C49B0224F8B5EFF3B1
:10348000108572B63C4A14688268FAB90121C4609A
:103490008160C4B10169012903D1E26A202142613E
:1034A0008162D4F8A41019B10A6B0863D06203E0FA
:1034B000C4F8A40001460246C1620263D4F8A00029
:1034C000401CC4F8A00085F3108806E0C368A3423E
:1034D00005D1521C826085F310880020F2BD0029BE
:1034E00046D0264E326812B185F3108842E0D4F8F7
:1034F000AC20234FA766E066521CC4F8AC20C2691A
:103500001AB984612467646708E087692767D7F878
:1035100074C0C4F874C0CCF870407C67521C01279A
:10352000C2610D222263A763E1643168491C3160E6
:1035300085F310880269012A14D1E16A826A9142F6
:1035400088BF11468162E06AD3F89C10884288BF28
:103550000846C3F89C00E16AD86A81423CBF18461D
:1035600001F0D6FC2046FFF727FDD4F88400F2BD19
:1035700085F310881D20F2BDB09B0224C49B022459
:1035800085D00108F8B505460024686B0E4617463D
:10359000012808BFB5F8060603D0022804D1B5F803
:1035A00004060B2808BF0124284600F0BBFE88B99A
:1035B000B5F80016C9B1A5F8000639462846FEF749
:1035C0003BFF044311D13A4631462846BDE8F84056
:1035D00000F0A8BEB0F5A07F07D13A463146284694
:1035E00000F0A0FEB0F5A07FF7D0F2BDF8B5EFF384
:1035F000108672B6134C256804684CB12C670468B9
:10360000676F6F6707687C6F25670068456702E032
:1036100005602D676D670698A966EA660C21296327
:103620000122AA6308490C68641C0C60E86486F3F4
:1036300010881846FFF73CFE2846BDE8F240FFF729
:10364000BBBC00BFB09B0224C49B02247FB50025F5
:10365000044602950A4601954FF480110095236CAB
:10366000024D01F0AFFC2E68A6647FBDD49E0224FB
:103670002DE9F84F90B000250F950E460E950127C5
:103680000D95A8460596099506950C97716A00292F
:1036900000F0CE800546EFF3108472B6D5F8E00056
:1036A00018B984F3108824203AE2A86B0792032803
:1036B00018BF042803D10521284601F037FDA86B67
:1036C000052818BF062802D084F310884BE1D5F8EE
:1036D000A07084F310886869042809D1AA6A05F1EA
:1036E00018040D9402F114030E93326338220992E8
:1036F000296ADFF834940B913268089216E09B1A1D
:10370000AAEB020A920892008A60C318CA60824437
:1037100049688868CA68141A5445F0D3A3EB0A03B1
:10372000736288685044886000F021FA00F019FA4A
:10373000686DA96D81420AD2EA6E012A18BF022A79
:1037400006D12A6A01EB4200696D814200D9014627
:10375000E86D0B9C726A0392884234BF091A0021FB
:103760008C4288BF0C46002C00F08181D5F8C00047
:10377000D5F8BC10884280F07A81944224D3B36893
:1037800013F003001FD1706840B1089C0999D4F868
:1037900028C08918614501D2A168A1B9F468A34283
:1037A0000FD104E08168C368994207D140680028BE
:1037B000F8D14FF0FF3001F0F9F9FAE711F0030FFB
:1037C00001D1059661E014460196D6F808A000F0F4
:1037D000CEF9079B099A089805A9FEF713FA5FEA44
:1037E000000B06D0B8F1000F01D000F0A5F9584643
:1037F00096E100F0B6F904E00298A4EB0B0400EBAC
:103800000B0A002C3ED0019901E0D1F808A0C8684D
:10381000B0EB0A000ED149680029F6D1B8F1000FCB
:1038200001D000F089F90598FEF754F900F09FF9EE
:10383000122075E18346A345019107F59E70CDF8EE
:1038400008A088BFA346FFF733FD0798089B0090A8
:10385000029905985A46FEF75BF8824600F081F916
:10386000BAF1000FC8D00599486A58B9B8F1000FED
:1038700001D000F061F900F07AF90598FEF72AF915
:1038800050464DE10599306B08630599686981F8E8
:103890002C00059A9068A0F1140494600598426A7F
:1038A00014324262E969E86841EA00419F482160B8
:1038B0002A6CA2606B6F00210343E36021612A6CD4
:1038C000686F6A64A8679A490A68AA64236818BA84
:1038D0002060A06800BAA060E16808BAE0602069D2
:1038E00000BA206100F043F9D5F83CB09BFA8BF0A8
:1038F0006060A86A90F840104A0713D500200C9029
:103900000599886B40F00400886300F02AF9E86BA1
:10391000834517D000F02BF90598B04201D0FEF78F
:10392000D9F803E70C980028EAD0059A0D99009180
:103930000E9B05980621526A01F012FCC04380B22A
:103940000F90E2E7A86B052818BF06280DD0B8F144
:10395000000F01D000F0F0F800F009F90598B0422E
:1039600018BFFEF7B7F83820DAE0EFF3108172B62F
:10397000059BEA6B586A8218143AEA6381F310884F
:10398000002185F89C10206900BA20610F99090474
:1039900008BA2061059903984A6A801A00F1140454
:1039A000D5F8C40020B1D5F8C800016205980AE036
:1039B000C5F8C4100598D5F8D0100022C5F8CC1071
:1039C000C5F8D420EA65C5F8C80005994FF0EE3077
:1039D0000862D5F8C020E96D521CC5F8C020059AD0
:1039E000506A41181439E965D7F8A810D7F8AC2007
:1039F000491CC7F8A8100599486A8218143AC7F8F4
:103A0000AC20E96FD5F88020491CE9670599486A20
:103A100069698218143AC5F88020042911D1E86A2E
:103A20004FF4C0220390D5F8AC1002910599019291
:103A3000D5F8A8300093D5F8A430AA69384601F02B
:103A4000F0FB002C0ED10598B0421CBF3046FEF7AB
:103A500041F8B8F1000F01D000F06EF800F087F8DF
:103A600000205DE0736A3146A3EB040A51E6079833
:103A700000281EBFD9F8000007F5CC7188423CD061
:103A8000C667D5F8F82095F89C00521CC5F8F820B8
:103A900000F058F8B8F1000F14D1002100220023E3
:103AA000049103910AA802924FF00108019300903B
:103AB00007F5CC7001F0F4F80A99D9F8000006AACD
:103AC00001F0F2FB079807F59E7300902A4619490A
:103AD00005F1F400FFF78AFDD9F80030D3F884002F
:103AE00000283FF423AE069906AA184601F0DCFB35
:103AF000D9F80010D1F8840012E095F89C0000F08D
:103B000021F8D5F8C010D5F8BC00814207F59E70A9
:103B100003D2FFF7CDFB392002E0FFF7C9FB4920B4
:103B200011B0BDE8F08F0000B09B022400001850D7
:103B3000D49E0224113F00080699D9F8000006AA75
:103B400001F0B2BB60B9012185F89C10B068E96B47
:103B500002780020C5F8981085F89D20C5F89400DB
:103B600070474FF0FF3107F59E70FFF787BC07F5F0
:103B70009E70FFF79DBB0000F8B505460C460B4F45
:103B800016464FF0FF313846FFF778FC33461722D0
:103B90002146284601F0C4FB04001CBF284601F062
:103BA0009FFC3846FFF784FB2046F2BDF89D0224B7
:103BB000F8B506460F46284D00F050F805E0C269FA
:103BC0000021B260C161FDF785FFB0680028F6D121
:103BD000F06818B1FDF77EFF0020F060706B0228DE
:103BE0000AD1B6F804060A280CD02846FFF760FB75
:103BF000304601F075FCF2BD012804BFB6F8060698
:103C00000A28F2D12846FFF753FB31693B466A4642
:103C10003046FFF78DF9040006D0304601F060FC15
:103C20000028E8D12046F2BD00F018F800990123E1
:103C30000022304601F0B6FC00993B461522304682
:103C400001F06EFB0400D0D00098FDF743FF28463A
:103C5000FFF72EFBE1E70000F89D02244FF0FF3153
:103C60002846FFF70BBC000070B50446184E01F063
:103C700037FC05464FF0FF313046FFF7FFFBD4F825
:103C800010061449844208BF00200FD018B1D4F8A0
:103C90000C26C0F80C26D4F80C26D4F81006C2F86E
:103CA00010060B68A34202D1D4F8100608600A4936
:103CB000086808B1401E08600020206004F2CC5063
:103CC00000F034FC3046FFF7F3FA284670BD00BF21
:103CD000F89D0224F09D0224F49D02243EB5044682
:103CE000C868C20208D500250023029501950095F9
:103CF0008A684FF4802107E0002300220293019399
:103D000000924B684FF4A011204601F05BF9D4F803
:103D1000A000D0F8E010491CC0F8E01037BD002129
:103D200041618161C16180F89C10C0F8CC10C1660E
:103D300080F89E108168002914BF0121022181634F
:103D40007047000038B504460021D4F8C400C4F818
:103D5000C410C4F8C81017E081F310880EE0EFF328
:103D6000108172B6C269056A4FF0AA330362B2F1DC
:103D7000DD3FF1D181F31088FDF7ACFED4F8C0200F
:103D80002846521EC4F8C020D4F8C0100029E6D13D
:103D900031BD0000F8B5EFF3108472B6C16E19B1F1
:103DA0000B68234DAB4202D084F31088F1BD826EC4
:103DB00012B984F31088F1BDD1F8A0501D4B1A68D8
:103DC000EFF305831A4304D11B4A1C4E1368B34218
:103DD0000CD11B4F876684F3108805F51270002202
:103DE0004FF48051BDE8F840FFF788B9002383669F
:103DF0008A68C1F8FC30C1F8CC300AB1012203E076
:103E00000B6C02225B1E0B648A63016B0C290CD1C4
:103E100038220C49C0F884200B685B1C0B6084F3CB
:103E20001088BDE8F240FEF7F7BF84F31088F1BDBB
:103E3000205043549C420024B09B0224248102243D
:103E400053230008C49B022470B5EFF3108472B6AC
:103E5000C16E19B10B68284DAB4202D084F31088B3
:103E600070BD826E12B984F3108870BD234B1A683E
:103E7000EFF305831A4304D1214A224D1368AB4264
:103E80000ED1214E8666D1F8A00084F3108800225E
:103E90004FF4805100F51270BDE87040FFF72EB965
:103EA000026F00238366904208BFC1F8EC3007D050
:103EB000C1F8EC20026F436F5367436F056F1D67B6
:103EC000D1F8F020521EC1F8F020036B0C2B10D15A
:103ED000896B052914BF38210121C0F884100B49D2
:103EE0000A68521C0A6084F31088BDE87040FEF72F
:103EF00093BF84F3108870BD205043549C4200242B
:103F0000B09B02242481022453230008C49B022472
:103F100070B5EFF3108472B6C16E19B10B682C4DF9
:103F2000AB4202D084F3108870BD826E12B984F364
:103F3000108870BD274B1A68EFF305831A4304D12C
:103F4000254A264D1368AB420ED1254E8666D1F820
:103F5000A00084F3108800224FF4805100F5127005
:103F6000BDE87040FFF7CAB8026F00238366904235
:103F700008BFC1F8F43007D0C1F8F420026F436FD6
:103F80005367436F056F1D67D1F8F820521EC1F8C3
:103F9000F820036B0C2B18D18A6B052A18BF382127
:103FA00007D1D1F8C020D1F8BC108A4234BF3921E2
:103FB0004921C0F884100B490A68521C0A6084F336
:103FC0001088BDE87040FEF727BF84F3108870BDED
:103FD000205043549C420024B09B0224248102249C
:103FE00053230008C49B02240A460021E0B5029135
:103FF00001910091036C4FF4881100F0E3FF07BDBD
:1040000070B5EFF3108472B6C16E19B10B68284D0C
:10401000AB4202D084F3108870BD826E12B984F373
:10402000108870BD234B1A68EFF305831A4304D13F
:10403000214A224D1368AB420ED1214E8666D1F83B
:10404000A00084F3108800224FF4805100F5127014
:10405000BDE87040FFF752B80023C1F8E830026FA6
:104060008366D1F8E410904208BFC1F8043107D04C
:10407000C1F80421026F436F5367436F056F1D67DB
:10408000D1F80821521EC1F80821016B0C290CD16E
:1040900023220C49C0F884200B685B1C0B6084F35E
:1040A0001088BDE87040FEF7B7BE84F3108870BD7D
:1040B000205043549C420024B09B022424810224BB
:1040C00053230008C49B022438B504460021D4F8C9
:1040D000B400C4F8B410C4F8B8100BE0056A4FF08F
:1040E000AA310162FDF7F6FCD4F8B0202846521E32
:1040F000C4F8B020D4F8B0100029EFD131BD0000D1
:1041000038B5EFF3108372B60268DAB1146FA242C9
:1041100002D10024046006E00460156F506F6867E8
:10412000506F146F04670025084895660468641C86
:10413000046083F31088C2F884101046BDE8324052
:10414000FEF76ABE83F3108831BD00BFC49B022412
:1041500070B50546EFF3108472B6286A18B105F100
:10416000080000F027FE00210A4A29600A49086871
:10417000401E08BF002307D06E6AAB6AB3625E625E
:104180001368AB4208BF33461360086084F310889D
:10419000002070BD888002248C800224F8B5EFF3E3
:1041A000108672B6046A856802F0020704B1A5435E
:1041B000022F01EA050420D18C421ED0069C002C5F
:1041C00049D0274F3D68002D45D1DFF898C0DFF872
:1041D00098E0DCF80050A967D5F8AC10491CC5F888
:1041E00068E0C5F88020EB67E866C5F8AC10416967
:1041F000B1B905612D676D6718E0002CDED0D207DC
:104200001D600BD543692BB102691AB9036A1943C2
:10421000016203E0826822EA0101816000201BE064
:1042200002692A67536F6B671D675567491C4161B7
:10423000072001212863A963EC643A68521C3A60A4
:1042400086F310882846FEF7B7FEEFF3108672B6A5
:10425000D5F8840000E0072086F31088F2BD00BF87
:10426000C49B0224B09B022499D30108F8B50646EA
:104270000C462B4F15464FF0FF313846FFF7FEF83E
:10428000D4F8A0200021D2F8380174603061B16008
:10429000F16086F8411086F84010A6F8CA15C6F8F5
:1042A0006816C6F86C16A068002814BF012002200A
:1042B0000128706320D131692B466A46304601F0EF
:1042C00089F9040003D03846FEF7F2FF25E0009993
:1042D000304601F0ADF9040006D100992B460122C9
:1042E000304601F084FA044634B13846FEF7E0FF68
:1042F0000098FDF7EFFB10E03846FEF7D9FF29469E
:104300003046FEF799F80446552C01D10DB9F2BD9F
:1043100024B1304601F0E4F800B92046F2BD00BFF8
:10432000F89D02242DE9F04385B0002306460F4690
:10433000DFF85081914600934FF0FF3101934046E2
:10434000FFF79CF8B068746840B14B466A4600219C
:10435000304601F089FA0546552D0ED100F094F84B
:104360004A4604A92046FDF799FD00284BD100F0EC
:104370008EF84B466A460499EAE7002D18BFB5F55A
:10438000A07F45D1B16800984A6A121A00204A629B
:104390000C4603E09A1A2046009264680CB3E36866
:1043A000A2689A1A009B9342F4D2A168CA1800230B
:1043B000A260009368B14360B1684A6A6262896929
:1043C000A161B2689061B068FDF784FBB4600098A9
:1043D000A8B9706B01280AD1B6F806060A284BD195
:1043E0000BE00846FDF776FB0021B160EFE70228FD
:1043F00004BFB6F804060A283ED1F06820B900F0E0
:1044000043F84FF482703AE038600020F06033E007
:1044100002AA03A901F07DFB706B022803D10120E1
:10442000A6F8040604E0012804BF0121A6F8061638
:10443000B5F58A7F20D000F027F831694B4601AAF4
:104440003046FEF775FD044600F021F88CB9029B5A
:10445000039A01993046DBB2D2B201F0A3F8019978
:104460004B461522304600F05BFF10B10198FDF776
:1044700031FB304601F034F800F006F8284605B06C
:10448000BDE8F083F89D02244046FEF711BF4FF0CF
:10449000FF314046FEF7F2BFF8B5EFF3108372B676
:1044A00000211F4E016032681E49521E08BF0024C1
:1044B00007D08569C469EC61A5610C68844208BFB6
:1044C0002C460C60184D296800240027491C2960DF
:1044D0000169046144694761326083F3108811E027
:1044E000641EEFF3108072B601238F66C1F884302A
:1044F0000E6F2A68521C2A6080F310880846FEF767
:104500008BFC3146002CEBD1EFF3108072B629689A
:10451000491E296080F3108800F066F80020F2BD83
:10452000409E02243C9E0224C49B0224F8B5EFF373
:10453000108272B60021244B01601968491E19606F
:10454000224B07D0046A416A61620C621968814299
:1045500008BF214619601E4D29680023491C2960A7
:10456000C1688669C4698361C36141B10123836005
:1045700082F31088FEF79CFEEFF3108272B682F38E
:10458000108812E0641EEFF3108072B60021012241
:10459000B166376FC6F884202968491C296080F30A
:1045A000108830463E46FEF737FC002CEAD1EFF388
:1045B000108072B62968491E296080F3108800F0C7
:1045C00013F80020F2BD00BF489E0224449E02243E
:1045D000C49B02244018491C1CBFB1F1010100F822
:1045E000012DF9D1704700000C490868002800D05F
:1045F000704710B50A4A0B491368086883420BD00C
:104600004FF08054084A1460EFF3058020B9EFF3AF
:10461000108062B680F3108810BD00BFC49B0224D6
:10462000B09B0224B49B022404ED00E070B50D465B
:1046300004461646342101F003FB65602661EFF362
:10464000108172B60C4A0D4B22600D4803600D4A72
:1046500010680D4B18B91C602346254603E01B6803
:104660005D6A5C622C62401C10606562236281F3AB
:104670001088002070BD00BF4554554DF5D001088D
:10468000C89B0224489E0224449E02242DE9F84F30
:104690008946DDF828800B99054692469B460C9C7E
:1046A0000E9FEF224046FFF795FFB021284601F00C
:1046B000C7FAC5F828900026C5F844A0C5F848B048
:1046C000C5F80C800B9868612020EC62C5F8944016
:1046D000AF61EF61C5F89C000B9941444A1E2A6105
:1046E0000D982B49AD6569652A49844218BF00249D
:1046F0000320EC6328632846C5F8984001F0A4FA2B
:10470000EFF3108172B62448244B28601868244ABD
:1047100018B915602C46A84606E01468D4F88C80B9
:10472000C4F88C50C8F888500F9AC5F88840C5F86E
:104730008C80401C18601B4803685B1C012A0360C6
:1047400017D119480268EFF305800243B2F1F03F38
:1047500006D3164A146824B1E66BE06AE06300E011
:10476000002481F310882846FEF756FB6CB1E663FF
:104770000BE081F31088EFF3108172B60268521ECD
:10478000026081F31088FFF72FFF0020BDE8F28F51
:10479000FDD8010879D7010844524854BC9B022433
:1047A000B89B0224C49B02249C420024B49B022494
:1047B00038B50D460446242101F042FA6560EFF356
:1047C000108172B60A4A0B4B22600B4A106818B966
:1047D0001C602346254603E01B68DD69DC61AC6193
:1047E000401C1060E561A36181F31088002032BD98
:1047F0004E4456443C9E0224409E02240246002021
:10480000F0B5EFF3108372B6116B012918BF0229BE
:1048100003D083F310881120F0BD10600B4C216889
:104820000B4D491E08BF00260BD0D2F88870D2F875
:104830008C60C7F88C60C6F888702E68964208BFF6
:104840003E462E60216083F31088F0BDBC9B02249D
:10485000B89B022438B50025EFF3108272B6016BC5
:1048600003291BD1124B1B68EFF305810B43B3F1F6
:10487000F03F06D30F490C6824B1E56BE16AE163B0
:1048800000E000240C490B685B1C0B6082F310886D
:10489000FEF7C2FA04B1E563002032BD416B012985
:1048A00006BF45631920122082F3108832BD00BF75
:1048B0009C420024B49B0224C49B02242DE9F843AB
:1048C0000D46044616461F46DDF82080DDF824908C
:1048D0002C2101F0B5F96560C4F80880C4F80C908B
:1048E00026616761EFF3108572B60F480F4A2060AA
:1048F00010680F4918B90C602346264603E00B6880
:104900009E6A9C6274620A996362A662401C10608F
:10491000012904BF04F1080000F07CFA85F3108837
:104920000020BDE8F28300BF4D4954418C80022431
:1049300088800224F0B42349D1F88860D1F88450EB
:1049400091F88000204B214C6FF0004228BB0820DA
:1049500004FB05352E461546B6FBF5F5401E02FB59
:104960001565F5D10E46102004FB05351746B5FB3D
:10497000F7F702FB17553560154656F8047B04FB24
:104980000737B7FBF5F502FB1575401E46F8045BCB
:10499000EAD1CE6F012081F8800004FB0535134673
:1049A00006F01F06B5FBF3F351F8260002FB135582
:1049B00041F82650C1F88450C1F8880020F04040EA
:1049C000F0BC7047A04200245FF36E3C0D661900F6
:1049D0002DE9F0410E4605461746B0464FF0FF312F
:1049E00005F59E70FEF74AFD06EB1622002402F044
:1049F0001F0205EB8201D1F8080448B10146C268E4
:104A0000B24204D0D0F8E0008842F8D100E001249E
:104A100005F59E70FEF74CFC44B1761CB6F5803F60
:104A200028BF4FF44046B045D8D102E03E60002098
:104A300000E04520BDE8F081F0B50D46044605F0E4
:104A400070410020B1F1604F186018BF15F1010FDF
:104A50000FD11D60106840B994F82207002800F0BB
:104A6000A18004F21C71116080E08079002876D06A
:104A70007CE094F8201700291CBF94F82207002836
:104A80000CD0D4F83017A94208D1106800281ABFFA
:104A900004F21C76B04204F21C7041D04FF0000CBE
:104AA000502707FB0CF004F21C76064431790029EC
:104AB0001CBFB07900280CD0B169F069294081424F
:104AC00007D11068002818BFBCF1010F68D0B042B0
:104AD0004BD00CF1010CBCF1010FE2D9280CDFF82E
:104AE000C8C0000460451DD1116829B10879C8B15A
:104AF0008979002939D115E0002607FB06FE04EB71
:104B00000E0090F8201700291CBF90F822070028FB
:104B100003D1761C012EF0D904E004F21C7070441D
:104B2000106022E0A668002E1CBFE16800290FD0AB
:104B3000887968B18869CD690640B54232D110687C
:104B400008B9116001E088422CD1A06818600DE01E
:104B5000106868B10279002A1CBF8179002921D030
:104B60004069000C000460451CD11D600020F0BDB0
:104B70004FF0000E07FB0EF604F21C70064431796C
:104B800000291CBFB079002804D07169090C090400
:104B9000614505D00EF1010EBEF1010FEAD901E029
:104BA0001660E2E72120F0BD0000FEA970B5EFF32A
:104BB000108372B619490C6814B983F3108817E092
:104BC00017490968EFF30582114302D083F3108877
:104BD0000EE014498C4202D183F3108808E010B92A
:104BE00083F3108870BD104A116819B183F31088DF
:104BF000132070BD0425012100262563A163C4F89C
:104C00008460E06415686D1C156083F3108820468D
:104C1000FEF7D2F9D4F8840070BD00BFB09B022427
:104C20009C42002424810224C49B02247FB50446B4
:104C30000D4660690021042803D1A16A496A283918
:104C400089B22069884201D200B10146A06B41F0CF
:104C50000172124B042814D1606A814288BF014658
:104C60002162494321630026019302964FF490117B
:104C70000092236C2A46204600F0A4F9256665665A
:104C80007FBD03282162EED1002001930092002312
:104C900002902A464FF40031EDE700BF0001010108
:104CA00030B5EFF3108472B609B1856A0D600AB1B0
:104CB000016B11600BB142681A60039911B1D0F811
:104CC00094200A60049911B1D0F898200A600599DF
:104CD00009B182690A60069911B1D0F888200A608A
:104CE000079909B1006F086084F31088002030BD77
:104CF0002DE9F84304460D46EFF3108172B6D4F85F
:104D000094301360206B48B100F04CF834BF284653
:104D10000546E062E56381F3108839E00E201E4EFF
:104D20002063D6F80090D4F82C801C4F3A680123F9
:104D30000020D21C3A60A363E06481F3108820460F
:104D4000FEF73AF900F02EF83ABF28462946014608
:104D5000E0622046E163FEF75FF8EFF3108172B680
:104D60003A68521E3A60326894420DD0206B58B9AE
:104D7000E06AD26A824207D34C4505D1A845346027
:104D80003CBF074B43F8204081F31088FFF72CFC11
:104D90000020BDE8F2830000B49B0224C49B0224DF
:104DA000D49B0224D4F89C00C4F89450C4F89850C2
:104DB00085427047816991B10269904205D10A68C4
:104DC00082420AD100230B6007E0436953611A61F4
:104DD0000B68834204BF91610A60002181617047C2
:104DE00010B590F8412092B1426C12B940F2051012
:104DF00010BDD26813680C2B09D1008F40F201342A
:104E0000A04204D01089C0080880002010BD0020F6
:104E1000FAE700000268002A00D1704712F1010F82
:104E200070B51FD08169E9B9212A0F490B680F4C71
:104E300021682EBF7C22521E92001A448A4205D35A
:104E40000B4D521A2E6822F003023244116819B930
:104E500000614061106004E04B69186148610161C4
:104E60004361826170BD00BF808002247C80022487
:104E700078800224F8B5EFF3108172B6C469012C72
:104E800002D881F310883EE0022C826908D1136FAA
:104E9000D26ADC6A944238BF836181F3108832E0C1
:104EA00013461A4E1D6F37687F1C3760D5F82CC02B
:104EB000DF6ABC4538BF2B4681F31088EFF31081C1
:104EC00072B68769BA4204BFD0F81CC0644504D0EA
:104ED0003A461346C4691D6F00E02D6F9542E5D137
:104EE0003468641E9342346009D01C6F5D6F65673F
:104EF0002C67546F1A675C6723675367836181F37C
:104F00001088FFF771FB0020F2BD00BFC49B022494
:104F10002DE9F04104460D46EFF3108172B6206B87
:104F200048B1D4F89800E562A84288BF2846E063FB
:104F300081F310883DE0204ED4F82C8037681F485C
:104F400002680E23921C0260012023630022A063EA
:104F5000E26481F310882046FEF72EF8EFF310800C
:104F600072B6D4F89810E562A94288BF2946E16379
:104F700080F310882046FDF74FFFEFF3108172B6E3
:104F80003268944213D0206B88B9D06AE26A9042AA
:104F900002D3BC420BD104E0E36B934207D29842A8
:104FA00005D3A84534603CBF054840F8224081F352
:104FB0001088BDE8F08100BFB49B0224C49B02248A
:104FC000D49B02242DE9F04F16460D46AA0385B066
:104FD00004469B46D4F8A0A0616F4CBF4FF0E04759
:104FE0004FF0A04700910023DAF83801242204A9E9
:104FF0004FF00008C146FCF705FE002809D10498CF
:10500000416902469068091A1D2903D21046FCF72F
:1050100061FD87E0606982F82C006269042A02D190
:105020000499A06A0863049A314610982F43966841
:1050300006F11403D360049B14225A62E269E36808
:1050400042EA034232607160C6F808B000990F432B
:10505000F760C6F81080616FC4F844B0A167326889
:1050600011BA31607368F26819BA7160B16809BA2F
:10507000B16011BAF160316909BA316150B1049976
:105080000078CA68521CCA6002F8010D049B586A75
:10509000401C5862A8030FD50E990F9A049B08BABA
:1050A00011BADA68106002F1080051600499C86012
:1050B000049A506A08305062A06A90F840104A077B
:1050C00005D50498816B41F00401816315E06169A5
:1050D000042904BF00F1140804F118090498CDF85C
:1050E000009043460621426A00F03AF83169C04315
:1050F000000400BA09BA316130616069042811D135
:10510000E16A4FF4C0220391D4F8AC0002900499F4
:105110000192D4F8A8300093D4F8A430A269504684
:1051200000F07FF805B0BDE8F08F000070B50546CF
:105130000E46144607E0A96BB1420AD05CB10120CB
:10514000641EFFF733FD296804488142F3D007202D
:1051500070BD002070BD432070BD00BF205043547F
:10516000F8B50024112918BF06291AD1002B1CBF3D
:10517000069C002C04D14FF0FF30FFF717FDFAE733
:105180001D885B88268864884919CB189E193119B7
:1051900051188BB203EB114303EB13439BB25CBA80
:1051A000A4B2816878B99AB3012A28D10020487046
:1051B0002CE040680028F7D003F00303022B02D153
:1051C0000988921E64188168C3685E1A964239BFC6
:1051D0009E08B6005618F61EB1420DD2F71CBF0845
:1051E000A2EB87028A1805E051F8045B14FA85F4F3
:1051F00004EB1544B142F7D3002ADAD108E0032AC0
:1052000004D131F8020B002224184A70098864186E
:10521000A0B200EB144000EB104080B240BA80B264
:10522000F2BDFEB504460D4621691746491C2161B1
:10523000286B50B9A16B491CA163A868696AA0F1E9
:105240001402AA601431696220E00998089A0A9E43
:10525000019000923A4602962946204600F016FD3B
:105260000B99B9B9D4F8300168B129630BAB05F1DA
:10527000300239462046FFF7DFFB296B00291CBFAF
:105280000B98002806D1A16B491CA163284600F0A9
:1052900079FDF7BD0B98334600903A4629462046E3
:1052A00000F094FDF7BD000070B5D0F894300024F4
:1052B0008B421CBF00290021EFF3108372B6D0F897
:1052C00094508D4238BF182420D3D0F89860114DE7
:1052D0001660D0F89C20C0F89810C66A914298BF1A
:1052E0000A46C2632A68B24238BF8A420ED20A49CD
:1052F0000D6885420AD1094850F822200A6083F3DC
:105300001088FFF771F9EFF3108372B683F31088FA
:10531000204670BDC09B0224B49B0224D49B02246F
:105320002DE9F84F07468CB000200E46ADF8080076
:10533000786893469846D6F824A000281CBFD0F879
:10534000A00000280AD0FDF717FD7968D1F8A02049
:1053500002F5CC73984208BF4FF00008DFF868915F
:105360004846FDF7A5FF414607F2CC50FEF786F808
:1053700000F0B0F824B140F253100DB0BDE8F08F4A
:1053800097F8410098B102A93846FFF729FD0400BB
:1053900075D1B068BDF808103269821A8A420BD301
:1053A000726A0B465B421844B06089187162B0683B
:1053B0003169411A052904D200F088F84FF482704F
:1053C000DBE7451F4FEA1A2285F800B0388F000A44
:1053D0006870398FA970EA7085F804A097F84100C9
:1053E00000285BD0786C20B900F070F840F205100E
:1053F000C3E74169C869002838D0796B2A46022979
:1054000007F274510CBFD7F84004D7F83C04019060
:1054100003A800900523384600F0FCFD04002ED1BF
:10542000BDF80810B068F26834460144101ABDF89F
:105430000820821A02E0A168E268521A384600F099
:1054400075FE6468002CF6D103AA04A9384600F062
:1054500092FE4846FDF72CFFCDF800803B69039A89
:1054600004A93046FCF754FA00F035F85B4607F221
:1054700074523146384600F0B3FE040003D000F009
:1054800025F8204679E7D7F87405401C04D1D7F8F1
:105490007815491CC7F87815C7F87405706A010AB1
:1054A000E9702871B068716A421F4846B260491DB0
:1054B0007162FDF7FDFE786842463146FCF77CFDDF
:1054C00000F008F8DBE70000F89D022407F2CC505A
:1054D000FDF7EEBE04464FF0FF314846FDF7CEBF64
:1054E00070B504462E4D4FF0FF312846FDF7C6FF3C
:1054F00094F8401000291CBF606C00280BD0C068D5
:10550000816941B1D4F830068847616CD4F834061B
:10551000CA689369984700206063208784F8400038
:1055200084F84100606404F14C0000F0A0FF00200A
:105530004FF4807184F8540404F25540FDF73EF8AE
:1055400004F2745000210022C0E9001204F27C51E0
:105550002046C1E9002200F0ADFF06460020C4F855
:1055600098050C21A4F8560504F25A50FDF726F8C8
:105570000C2104F26650FDF721F80020A4F8000683
:10558000A4F85805A4F8CA05A4F80406A4F8060669
:10559000C4F838042846FDF78BFE304670BD00BFC6
:1055A000F89D022430B5446B012C03D10224A0F8ED
:1055B000064604E0022C04BF0225A0F80456C86881
:1055C0000370CB685A70CA6802234B62901CC86093
:1055D00030BD00002DE9F0410446DFF850800D4653
:1055E00016461F464046FDF763FE3B4632462946B7
:1055F0002046FDF79DFC04464FF0FF314046FDF785
:105600003DFF14B140F211100EE03068816842692C
:10561000521A042A04D2FCF75DFA40F2351003E076
:10562000091D8160C1600020BDE8F081F89D022461
:105630002DE9F84785B00F468146FC68002600F04A
:1056400048FF0196002202A9484600F077FF002299
:105650000DF10A01484600F079FFBDF80800BDF8D9
:105660000A10D9F848808842B8F8041018BF0126FB
:10567000490006B1891C99F854347A69F86889B2EE
:10568000C9182931121A8A4238BF40F23510C0F0C9
:10569000AB80BDF808000199000A6054019BBDF879
:1056A0000820601CC254BDF80810A9F83810019AEF
:1056B00000210491921C0192D9F8500608B180474C
:1056C0000490049909F14C03042509BA0491196066
:1056D000FFF730F909EB05012D1D81F84C00020A96
:1056E000030C000E1D2D81F84D2081F84E3081F8FD
:1056F0004F00EDD30198202209F14C012044FDF721
:105700007FFB019900202031019189F8540401990F
:1057100060540198401C019099F854244AB109F250
:1057200055412044FDF76CFB99F8542401998A18DF
:10573000019201984FF0000C22180023811C404672
:10574000019114E005684FEA4318DDF804A05B1CE2
:1057500035F808C04FEA1C2504F80A50DDF804802B
:10576000651C05F808C0019D8C46AD1C0195858817
:105770000CF10201AB42E5D356B1019B5620002645
:105780008C46E0540198631C1E54019B9B1C0193A2
:105790004FEA0C40000E1070012182F801C0019AFE
:1057A00003ABA1540198002101AA401C019021548F
:1057B0000198401C06460190801C0190796948467A
:1057C000091B0091214600F019FF68B90398621C7B
:1057D000010AA1559055F868019B796A0344FB6062
:1057E000019841180020796206B0BDE8F0872DE9E4
:1057F000F04780460E46706AB16817469946091F01
:10580000021DB1607262030C0F70040A4B708C7041
:10581000C870DFB134464FF0000AA168E5686D1A20
:10582000012F2A460CD108EB0A0000F51170FDF794
:10583000E7FAD8F83814AA446D18C8F8385402E0CA
:10584000404601F027F86468002CE6D14B4616224A
:1058500031464046FFF764FD04001CBF3046FCF7AC
:1058600039F92046BDE8F0872DE9F84F8AB00646A1
:105870000C4615469946052108A84FF0000A00F08D
:10588000DFF9C5F800A084B1A06900B9A461B068CF
:1058900008B9B46009E080694460B268A1699161A7
:1058A000B068616A436ACB184362308D08B9C6F8A4
:1058B00020A0D6F808B001E004988244F06818B13E
:1058C000FCF708F90020F06000210591F06A28B18A
:1058D00082460020F062316B2960306306A808AB75
:1058E00004A9029001930DF11A0300915246594602
:1058F000304600F0F3FF040041D1049828B9BDF808
:10590000182029688A182A6000E1BDF81800DDF81F
:105910001080DBF824300AEB000290444345C0F0CD
:10592000E6802C68049992460019081828603063B4
:1059300096F84000002862D0049944F60102914292
:1059400038D2BDF81A0006F27C53019305A9049BD6
:105950000091CDF80C905246C0B2594602903046A4
:1059600000F0E8FF04000BD0BDF8182004A8019057
:105970005B46CDF800A008A9304601F0A3F9C4E0C9
:1059800005980023F060059904A84A6A00930492E0
:10599000BDF81820059B019008A9304601F092F946
:1059A0000400ECD1059904984862049A44F201007D
:1059B000824202D340F25110A8E0059F786A50B9A4
:1059C000786820B1FCF786F800207860BF613869FC
:1059D000B860F86013E03C4602E0401A10186468B2
:1059E0006CB1A268E1688B1A9842F6D21044E0606C
:1059F000606820B1FCF76EF800206060BC61BDF803
:105A00001A10172979D0326A049BB06971699B1802
:105A100098420F4602D240F2351077E0059830B92F
:105A200007AB0A440093049B5146584605E007A87B
:105A30000A440090049B00210598FBF7D6FF040060
:105A400002BF07980499884208D1328D316A411803
:105A50003162012A0CD1706A884202D24FF48270FE
:105A600054E081427FF428AF0021318504907162B7
:105A7000BDF81A10142920D045D3162903D022D3FB
:105A800017293AD03FE0706B022806D1049A4B46A2
:105A90003946304601F08AF90446706B012806D178
:105AA000049A4B463946304601F0C4FA0446B4F530
:105AB000A97F17D0552C28D100E7049A39463046E3
:105AC00001F067FC21E03878022804BF3046FFF778
:105AD00007FD39784FF48A74C6F868167878C6F8E6
